{
  "contractName": "Tea",
  "abi": [
    {
      "constant": true,
      "inputs": [
        {
          "internalType": "string",
          "name": "_id",
          "type": "string"
        }
      ],
      "name": "getProduct",
      "outputs": [
        {
          "internalType": "string",
          "name": "id",
          "type": "string"
        },
        {
          "internalType": "string",
          "name": "name",
          "type": "string"
        },
        {
          "internalType": "string",
          "name": "typeId",
          "type": "string"
        },
        {
          "internalType": "string",
          "name": "batch",
          "type": "string"
        },
        {
          "internalType": "string",
          "name": "grade",
          "type": "string"
        },
        {
          "internalType": "string",
          "name": "period",
          "type": "string"
        },
        {
          "internalType": "string",
          "name": "store",
          "type": "string"
        },
        {
          "internalType": "string[]",
          "name": "img",
          "type": "string[]"
        },
        {
          "internalType": "string",
          "name": "qr",
          "type": "string"
        }
      ],
      "payable": false,
      "stateMutability": "view",
      "type": "function"
    },
    {
      "constant": false,
      "inputs": [
        {
          "internalType": "string",
          "name": "id",
          "type": "string"
        },
        {
          "internalType": "string",
          "name": "name",
          "type": "string"
        },
        {
          "internalType": "string",
          "name": "typeId",
          "type": "string"
        },
        {
          "internalType": "string",
          "name": "batch",
          "type": "string"
        },
        {
          "internalType": "string",
          "name": "grade",
          "type": "string"
        },
        {
          "internalType": "string",
          "name": "period",
          "type": "string"
        },
        {
          "internalType": "string",
          "name": "store",
          "type": "string"
        },
        {
          "internalType": "string[]",
          "name": "img",
          "type": "string[]"
        },
        {
          "internalType": "string",
          "name": "qr",
          "type": "string"
        }
      ],
      "name": "setProduct",
      "outputs": [],
      "payable": false,
      "stateMutability": "nonpayable",
      "type": "function"
    }
  ],
  "bytecode": "0x608060405234801561001057600080fd5b5061113f806100206000396000f3fe608060405234801561001057600080fd5b50600436106100365760003560e01c806368111cce1461003b578063fc49ee2914610073575b600080fd5b61005560048036036100509190810190610b92565b61008f565b60405161006a99989796959493929190610eb4565b60405180910390f35b61008d60048036036100889190810190610bd3565b610733565b005b60608060608060608060608060606100a56108b1565b60008b6040516100b59190610e9d565b908152602001604051809103902060405180610120016040529081600082018054600181600116156101000203166002900480601f0160208091040260200160405190810160405280929190818152602001828054600181600116156101000203166002900480156101685780601f1061013d57610100808354040283529160200191610168565b820191906000526020600020905b81548152906001019060200180831161014b57829003601f168201915b50505050508152602001600182018054600181600116156101000203166002900480601f01602080910402602001604051908101604052809291908181526020018280546001816001161561010002031660029004801561020a5780601f106101df5761010080835404028352916020019161020a565b820191906000526020600020905b8154815290600101906020018083116101ed57829003601f168201915b50505050508152602001600282018054600181600116156101000203166002900480601f0160208091040260200160405190810160405280929190818152602001828054600181600116156101000203166002900480156102ac5780601f10610281576101008083540402835291602001916102ac565b820191906000526020600020905b81548152906001019060200180831161028f57829003601f168201915b50505050508152602001600382018054600181600116156101000203166002900480601f01602080910402602001604051908101604052809291908181526020018280546001816001161561010002031660029004801561034e5780601f106103235761010080835404028352916020019161034e565b820191906000526020600020905b81548152906001019060200180831161033157829003601f168201915b50505050508152602001600482018054600181600116156101000203166002900480601f0160208091040260200160405190810160405280929190818152602001828054600181600116156101000203166002900480156103f05780601f106103c5576101008083540402835291602001916103f0565b820191906000526020600020905b8154815290600101906020018083116103d357829003601f168201915b50505050508152602001600582018054600181600116156101000203166002900480601f0160208091040260200160405190810160405280929190818152602001828054600181600116156101000203166002900480156104925780601f1061046757610100808354040283529160200191610492565b820191906000526020600020905b81548152906001019060200180831161047557829003601f168201915b50505050508152602001600682018054600181600116156101000203166002900480601f0160208091040260200160405190810160405280929190818152602001828054600181600116156101000203166002900480156105345780601f1061050957610100808354040283529160200191610534565b820191906000526020600020905b81548152906001019060200180831161051757829003601f168201915b5050505050815260200160078201805480602002602001604051908101604052809291908181526020016000905b8282101561061e578382906000526020600020018054600181600116156101000203166002900480601f01602080910402602001604051908101604052809291908181526020018280546001816001161561010002031660029004801561060a5780601f106105df5761010080835404028352916020019161060a565b820191906000526020600020905b8154815290600101906020018083116105ed57829003601f168201915b505050505081526020019060010190610562565b505050508152602001600882018054600181600116156101000203166002900480601f0160208091040260200160405190810160405280929190818152602001828054600181600116156101000203166002900480156106bf5780601f10610694576101008083540402835291602001916106bf565b820191906000526020600020905b8154815290600101906020018083116106a257829003601f168201915b5050505050815250509050806000015181602001518260400151836060015184608001518560a001518660c001518760e00151886101000151889850879750869650859550849450839350829250819150809050995099509950995099509950995099509950509193959799909294969850565b61073b6108b1565b6040518061012001604052808b81526020018a81526020018981526020018881526020018781526020018681526020018581526020018481526020018381525090508060008b60405161078e9190610e9d565b908152602001604051809103902060008201518160000190805190602001906107b89291906108fd565b5060208201518160010190805190602001906107d59291906108fd565b5060408201518160020190805190602001906107f29291906108fd565b50606082015181600301908051906020019061080f9291906108fd565b50608082015181600401908051906020019061082c9291906108fd565b5060a08201518160050190805190602001906108499291906108fd565b5060c08201518160060190805190602001906108669291906108fd565b5060e082015181600701908051906020019061088392919061097d565b506101008201518160080190805190602001906108a19291906108fd565b5090505050505050505050505050565b6040518061012001604052806060815260200160608152602001606081526020016060815260200160608152602001606081526020016060815260200160608152602001606081525090565b828054600181600116156101000203166002900490600052602060002090601f016020900481019282601f1061093e57805160ff191683800117855561096c565b8280016001018555821561096c579182015b8281111561096b578251825591602001919060010190610950565b5b50905061097991906109dd565b5090565b8280548282559060005260206000209081019282156109cc579160200282015b828111156109cb5782518290805190602001906109bb9291906108fd565b509160200191906001019061099d565b5b5090506109d99190610a02565b5090565b6109ff91905b808211156109fb5760008160009055506001016109e3565b5090565b90565b610a2b91905b80821115610a275760008181610a1e9190610a2e565b50600101610a08565b5090565b90565b50805460018160011615610100020316600290046000825580601f10610a545750610a73565b601f016020900490600052602060002090810190610a7291906109dd565b5b50565b600082601f830112610a8757600080fd5b8135610a9a610a9582610fad565b610f80565b9150818183526020840193506020810190508360005b83811015610ae05781358601610ac68882610aea565b845260208401935060208301925050600181019050610ab0565b5050505092915050565b600082601f830112610afb57600080fd5b8135610b0e610b0982610fd5565b610f80565b91508082526020830160208301858383011115610b2a57600080fd5b610b358382846110a9565b50505092915050565b600082601f830112610b4f57600080fd5b8135610b62610b5d82611001565b610f80565b91508082526020830160208301858383011115610b7e57600080fd5b610b898382846110a9565b50505092915050565b600060208284031215610ba457600080fd5b600082013567ffffffffffffffff811115610bbe57600080fd5b610bca84828501610b3e565b91505092915050565b60008060008060008060008060006101208a8c031215610bf257600080fd5b60008a013567ffffffffffffffff811115610c0c57600080fd5b610c188c828d01610b3e565b99505060208a013567ffffffffffffffff811115610c3557600080fd5b610c418c828d01610b3e565b98505060408a013567ffffffffffffffff811115610c5e57600080fd5b610c6a8c828d01610b3e565b97505060608a013567ffffffffffffffff811115610c8757600080fd5b610c938c828d01610b3e565b96505060808a013567ffffffffffffffff811115610cb057600080fd5b610cbc8c828d01610b3e565b95505060a08a013567ffffffffffffffff811115610cd957600080fd5b610ce58c828d01610b3e565b94505060c08a013567ffffffffffffffff811115610d0257600080fd5b610d0e8c828d01610b3e565b93505060e08a013567ffffffffffffffff811115610d2b57600080fd5b610d378c828d01610a76565b9250506101008a013567ffffffffffffffff811115610d5557600080fd5b610d618c828d01610b3e565b9150509295985092959850929598565b6000610d7d8383610e64565b905092915050565b6000610d908261103d565b610d9a818561106b565b935083602082028501610dac8561102d565b8060005b85811015610de85784840389528151610dc98582610d71565b9450610dd48361105e565b925060208a01995050600181019050610db0565b50829750879550505050505092915050565b6000610e0582611053565b610e0f818561108d565b9350610e1f8185602086016110b8565b610e28816110eb565b840191505092915050565b6000610e3e82611053565b610e48818561109e565b9350610e588185602086016110b8565b80840191505092915050565b6000610e6f82611048565b610e79818561107c565b9350610e898185602086016110b8565b610e92816110eb565b840191505092915050565b6000610ea98284610e33565b915081905092915050565b6000610120820190508181036000830152610ecf818c610dfa565b90508181036020830152610ee3818b610dfa565b90508181036040830152610ef7818a610dfa565b90508181036060830152610f0b8189610dfa565b90508181036080830152610f1f8188610dfa565b905081810360a0830152610f338187610dfa565b905081810360c0830152610f478186610dfa565b905081810360e0830152610f5b8185610d85565b9050818103610100830152610f708184610dfa565b90509a9950505050505050505050565b6000604051905081810181811067ffffffffffffffff82111715610fa357600080fd5b8060405250919050565b600067ffffffffffffffff821115610fc457600080fd5b602082029050602081019050919050565b600067ffffffffffffffff821115610fec57600080fd5b601f19601f8301169050602081019050919050565b600067ffffffffffffffff82111561101857600080fd5b601f19601f8301169050602081019050919050565b6000819050602082019050919050565b600081519050919050565b600081519050919050565b600081519050919050565b6000602082019050919050565b600082825260208201905092915050565b600082825260208201905092915050565b600082825260208201905092915050565b600081905092915050565b82818337600083830152505050565b60005b838110156110d65780820151818401526020810190506110bb565b838111156110e5576000848401525b50505050565b6000601f19601f830116905091905056fea365627a7a72315820846ed9f2af1ca65813be6b5d6f715c398de6dfa4237f77240f70e326cb0059c66c6578706572696d656e74616cf564736f6c63430005100040",
  "source": "pragma solidity >=0.4.21 <0.7.0;\r\npragma experimental ABIEncoderV2;\r\ncontract Tea {\r\n    mapping(string =>Product) productIdInstore;\r\n    mapping(string =>Plant) plant;\r\n    mapping(string =>Process[]) process;\r\n    mapping(string =>Store) stores;\r\n    mapping(string =>Check[]) check;\r\n    mapping(string =>Sale) sale;\r\n    struct Product{\r\n        string id;               //id\r\n        string name;             //茶名\r\n        string typeId;           //类型id\r\n        string batch;            //批次\r\n        string grade;            //等级\r\n        string period;           //保质期\r\n        string store;            //存储条件\r\n        string[] img;            //图片数组\r\n        string qr;               //二维码\r\n    }\r\n\r\n     struct Plant{\r\n        string place;            //产地\r\n        string producer;         //生产者负责人\r\n        string[] img;            //图片数组\r\n    }\r\n    mapping(string =>Pesticide[]) pesticide;\r\n    struct Pesticide{\r\n        string name;             //农药名\r\n        uint date;               //施药时间\r\n    }\r\n    struct Process{\r\n        string method;           //加工方法\r\n        uint startDate;          //开始时间\r\n        uint endDate;            //结束时间\r\n        string processer;        //加工者负责人\r\n        string[] img;            //图片数组\r\n    }\r\n     struct Store{\r\n        string place;            //存储地点\r\n        uint startDate;          //入库时间\r\n        uint endDate;            //出库时间\r\n        string[] img;            //图片数组\r\n    }\r\n     struct Check{\r\n        string typeId;           //检测类型\r\n        uint date;               //检测时间\r\n        string result;           //检测结果\r\n        string info;             //检测详情\r\n        string checker;          //检测负责人\r\n    }\r\n     struct Sale{\r\n        string place;            //售卖地点\r\n        string method;           //售卖方式\r\n        uint date;               //售卖时间\r\n        string saleer;           //售卖负责人\r\n    }\r\n     struct Staff{\r\n        string id;               //id\r\n        string name;             //用户名\r\n        string password;         //密码\r\n        string real_name;        //真实姓名\r\n        string phone;            //电话\r\n        string card;             //身份证号码\r\n        string work;             //工作\r\n    }\r\n\r\n    function  getProduct(string memory _id ) public view  returns (string memory id,string memory name,string memory typeId,\r\n    string memory batch,string memory grade, string memory period, string memory store, string[] memory img,string memory qr){\r\n        Product memory product = productIdInstore[_id];\r\n        return(product.id,product.name,product.typeId,product.batch, product.grade,product.period,product.store,product.img,product.qr);\r\n    }\r\n    function  setProduct(string memory id,string memory name,string memory typeId,\r\n    string memory batch,string memory grade, string memory period, string memory store, string[] memory img,string memory qr) public{\r\n       Product memory product = Product({\r\n           id:id,\r\n           name:name,\r\n           typeId:typeId,\r\n           batch:batch,\r\n           grade:grade,\r\n           period:period,\r\n           store:store,\r\n           img:img,\r\n           qr:qr\r\n       });\r\n       productIdInstore[id] = product;\r\n    }\r\n    struct Dictionary{\r\n        string id;               //id\r\n        string tea;              //茶叶id\r\n        string batch;            //批次\r\n        string method;           //加工方法\r\n        uint startDate;          //开始时间\r\n        uint endDate;            //结束时间\r\n        string processer;        //生产者负责人\r\n        string spare1;\r\n        string spare2;\r\n        string spare3;\r\n    }\r\n}",
  "sourcePath": "E:\\vscode\\tea\\contracts\\Tea.sol",
  "compiler": {
    "name": "solc",
    "version": "0.5.16+commit.9c3226ce.Emscripten.clang"
  },
  "schemaVersion": "3.0.23",
  "updatedAt": "2020-03-30T14:34:00.277Z",
  "networkType": "ethereum",
  "devdoc": {
    "methods": {}
  },
  "userdoc": {
    "methods": {}
  }
}