{
  "contractName": "Tea",
  "abi": [
    {
      "constant": true,
      "inputs": [
        {
          "internalType": "string",
          "name": "_id",
          "type": "string"
        }
      ],
      "name": "getProduct",
      "outputs": [
        {
          "internalType": "string",
          "name": "id",
          "type": "string"
        },
        {
          "internalType": "string",
          "name": "name",
          "type": "string"
        },
        {
          "internalType": "string",
          "name": "typeId",
          "type": "string"
        },
        {
          "internalType": "string",
          "name": "batch",
          "type": "string"
        },
        {
          "internalType": "string",
          "name": "grade",
          "type": "string"
        },
        {
          "internalType": "string",
          "name": "period",
          "type": "string"
        },
        {
          "internalType": "string",
          "name": "store",
          "type": "string"
        },
        {
          "internalType": "string[]",
          "name": "img",
          "type": "string[]"
        },
        {
          "internalType": "string",
          "name": "qr",
          "type": "string"
        },
        {
          "internalType": "string",
          "name": "produce",
          "type": "string"
        },
        {
          "internalType": "bool",
          "name": "processFinish",
          "type": "bool"
        },
        {
          "internalType": "bool",
          "name": "checkFinish",
          "type": "bool"
        }
      ],
      "payable": false,
      "stateMutability": "view",
      "type": "function"
    },
    {
      "constant": false,
      "inputs": [
        {
          "internalType": "string",
          "name": "id",
          "type": "string"
        },
        {
          "internalType": "string",
          "name": "name",
          "type": "string"
        },
        {
          "internalType": "string",
          "name": "typeId",
          "type": "string"
        },
        {
          "internalType": "string",
          "name": "batch",
          "type": "string"
        },
        {
          "internalType": "string",
          "name": "produce",
          "type": "string"
        }
      ],
      "name": "setProduct",
      "outputs": [],
      "payable": false,
      "stateMutability": "nonpayable",
      "type": "function"
    },
    {
      "constant": false,
      "inputs": [
        {
          "internalType": "string",
          "name": "_id",
          "type": "string"
        },
        {
          "internalType": "string",
          "name": "grade",
          "type": "string"
        },
        {
          "internalType": "string",
          "name": "period",
          "type": "string"
        },
        {
          "internalType": "string",
          "name": "store",
          "type": "string"
        },
        {
          "internalType": "string[]",
          "name": "img",
          "type": "string[]"
        },
        {
          "internalType": "string",
          "name": "qr",
          "type": "string"
        }
      ],
      "name": "setProductSenior",
      "outputs": [],
      "payable": false,
      "stateMutability": "nonpayable",
      "type": "function"
    },
    {
      "constant": false,
      "inputs": [
        {
          "internalType": "string",
          "name": "_id",
          "type": "string"
        },
        {
          "internalType": "bool",
          "name": "processFinish",
          "type": "bool"
        }
      ],
      "name": "setProductProcess",
      "outputs": [],
      "payable": false,
      "stateMutability": "nonpayable",
      "type": "function"
    },
    {
      "constant": false,
      "inputs": [
        {
          "internalType": "string",
          "name": "_id",
          "type": "string"
        },
        {
          "internalType": "bool",
          "name": "checkFinish",
          "type": "bool"
        }
      ],
      "name": "setProductCheck",
      "outputs": [],
      "payable": false,
      "stateMutability": "nonpayable",
      "type": "function"
    },
    {
      "constant": true,
      "inputs": [
        {
          "internalType": "string",
          "name": "_id",
          "type": "string"
        }
      ],
      "name": "getPlant",
      "outputs": [
        {
          "internalType": "string",
          "name": "place",
          "type": "string"
        },
        {
          "internalType": "string",
          "name": "planter",
          "type": "string"
        },
        {
          "internalType": "string[]",
          "name": "img",
          "type": "string[]"
        },
        {
          "internalType": "bool",
          "name": "finish",
          "type": "bool"
        }
      ],
      "payable": false,
      "stateMutability": "view",
      "type": "function"
    },
    {
      "constant": false,
      "inputs": [
        {
          "internalType": "string",
          "name": "id",
          "type": "string"
        },
        {
          "internalType": "string",
          "name": "place",
          "type": "string"
        },
        {
          "internalType": "string",
          "name": "planter",
          "type": "string"
        },
        {
          "internalType": "string[]",
          "name": "img",
          "type": "string[]"
        },
        {
          "internalType": "bool",
          "name": "finish",
          "type": "bool"
        }
      ],
      "name": "setPlant",
      "outputs": [],
      "payable": false,
      "stateMutability": "nonpayable",
      "type": "function"
    },
    {
      "constant": true,
      "inputs": [
        {
          "internalType": "string",
          "name": "_id",
          "type": "string"
        }
      ],
      "name": "getPesticide",
      "outputs": [
        {
          "internalType": "string[]",
          "name": "name",
          "type": "string[]"
        },
        {
          "internalType": "uint256[]",
          "name": "date",
          "type": "uint256[]"
        }
      ],
      "payable": false,
      "stateMutability": "view",
      "type": "function"
    },
    {
      "constant": false,
      "inputs": [
        {
          "internalType": "string",
          "name": "id",
          "type": "string"
        },
        {
          "internalType": "string",
          "name": "name",
          "type": "string"
        },
        {
          "internalType": "uint256",
          "name": "date",
          "type": "uint256"
        }
      ],
      "name": "setPesticide",
      "outputs": [],
      "payable": false,
      "stateMutability": "nonpayable",
      "type": "function"
    },
    {
      "constant": true,
      "inputs": [
        {
          "internalType": "string",
          "name": "_id",
          "type": "string"
        }
      ],
      "name": "getProcess",
      "outputs": [
        {
          "internalType": "string[]",
          "name": "method",
          "type": "string[]"
        },
        {
          "internalType": "uint256[]",
          "name": "startDate",
          "type": "uint256[]"
        },
        {
          "internalType": "uint256[]",
          "name": "endDate",
          "type": "uint256[]"
        },
        {
          "internalType": "string[]",
          "name": "processer",
          "type": "string[]"
        },
        {
          "internalType": "uint256[]",
          "name": "num",
          "type": "uint256[]"
        },
        {
          "internalType": "string[]",
          "name": "img",
          "type": "string[]"
        },
        {
          "internalType": "bool[]",
          "name": "finish",
          "type": "bool[]"
        }
      ],
      "payable": false,
      "stateMutability": "view",
      "type": "function"
    },
    {
      "constant": false,
      "inputs": [
        {
          "internalType": "string",
          "name": "id",
          "type": "string"
        },
        {
          "internalType": "string",
          "name": "method",
          "type": "string"
        },
        {
          "internalType": "uint256",
          "name": "startDate",
          "type": "uint256"
        },
        {
          "internalType": "uint256",
          "name": "endDate",
          "type": "uint256"
        },
        {
          "internalType": "string",
          "name": "processer",
          "type": "string"
        },
        {
          "internalType": "string[]",
          "name": "img",
          "type": "string[]"
        },
        {
          "internalType": "bool",
          "name": "finish",
          "type": "bool"
        }
      ],
      "name": "setProcess",
      "outputs": [],
      "payable": false,
      "stateMutability": "nonpayable",
      "type": "function"
    },
    {
      "constant": true,
      "inputs": [
        {
          "internalType": "string",
          "name": "_id",
          "type": "string"
        }
      ],
      "name": "getStorage",
      "outputs": [
        {
          "internalType": "string",
          "name": "place",
          "type": "string"
        },
        {
          "internalType": "uint256",
          "name": "startDate",
          "type": "uint256"
        },
        {
          "internalType": "uint256",
          "name": "endDate",
          "type": "uint256"
        },
        {
          "internalType": "string",
          "name": "storageer",
          "type": "string"
        },
        {
          "internalType": "string[]",
          "name": "img",
          "type": "string[]"
        },
        {
          "internalType": "bool",
          "name": "finish",
          "type": "bool"
        }
      ],
      "payable": false,
      "stateMutability": "view",
      "type": "function"
    },
    {
      "constant": false,
      "inputs": [
        {
          "internalType": "string",
          "name": "id",
          "type": "string"
        },
        {
          "internalType": "string",
          "name": "place",
          "type": "string"
        },
        {
          "internalType": "uint256",
          "name": "startDate",
          "type": "uint256"
        },
        {
          "internalType": "uint256",
          "name": "endDate",
          "type": "uint256"
        },
        {
          "internalType": "string",
          "name": "storageer",
          "type": "string"
        },
        {
          "internalType": "string[]",
          "name": "img",
          "type": "string[]"
        },
        {
          "internalType": "bool",
          "name": "finish",
          "type": "bool"
        }
      ],
      "name": "setStorage",
      "outputs": [],
      "payable": false,
      "stateMutability": "nonpayable",
      "type": "function"
    },
    {
      "constant": true,
      "inputs": [
        {
          "internalType": "string",
          "name": "_id",
          "type": "string"
        }
      ],
      "name": "getCheck",
      "outputs": [
        {
          "internalType": "string[]",
          "name": "typeId",
          "type": "string[]"
        },
        {
          "internalType": "uint256[]",
          "name": "date",
          "type": "uint256[]"
        },
        {
          "internalType": "string[]",
          "name": "result",
          "type": "string[]"
        },
        {
          "internalType": "string[]",
          "name": "info",
          "type": "string[]"
        },
        {
          "internalType": "string[]",
          "name": "checker",
          "type": "string[]"
        },
        {
          "internalType": "bool[]",
          "name": "finish",
          "type": "bool[]"
        }
      ],
      "payable": false,
      "stateMutability": "view",
      "type": "function"
    },
    {
      "constant": false,
      "inputs": [
        {
          "internalType": "string",
          "name": "id",
          "type": "string"
        },
        {
          "internalType": "string",
          "name": "typeId",
          "type": "string"
        },
        {
          "internalType": "uint256",
          "name": "date",
          "type": "uint256"
        },
        {
          "internalType": "string",
          "name": "result",
          "type": "string"
        },
        {
          "internalType": "string",
          "name": "info",
          "type": "string"
        },
        {
          "internalType": "string",
          "name": "checker",
          "type": "string"
        },
        {
          "internalType": "bool",
          "name": "finish",
          "type": "bool"
        }
      ],
      "name": "setCheck",
      "outputs": [],
      "payable": false,
      "stateMutability": "nonpayable",
      "type": "function"
    }
  ],
  "bytecode": "0x608060405234801561001057600080fd5b506151fc806100206000396000f3fe608060405234801561001057600080fd5b50600436106100f55760003560e01c806355b4d881116100975780639a2a95de116100665780639a2a95de14610294578063bfdb38df146102ca578063cdd13fe7146102e6578063e5380ad514610319576100f5565b806355b4d881146101f05780635bd052701461020c578063623782501461023d57806368111cce14610259576100f5565b80633d901aa0116100d35780633d901aa01461016757806342aedf6a146101835780634394bfaf1461019f578063519e55da146101bb576100f5565b806303931b0d146100fa5780630b6d398b1461011657806322a1a4491461014b575b600080fd5b610114600480360361010f91908101906148ec565b610335565b005b610130600480360361012b91908101906143e3565b610450565b60405161014296959493929190614c8c565b60405180910390f35b61016560048036036101609190810190614668565b610a1f565b005b610181600480360361017c9190810190614478565b610c82565b005b61019d60048036036101989190810190614757565b610d50565b005b6101b960048036036101b4919081019061454f565b610de9565b005b6101d560048036036101d091908101906143e3565b6116ad565b6040516101e796959493929190614f11565b60405180910390f35b61020a60048036036102059190810190614424565b61198c565b005b610226600480360361022191908101906143e3565b61222f565b604051610234929190614c55565b60405180910390f35b610257600480360361025291908101906147d6565b612449565b005b610273600480360361026e91908101906143e3565b612577565b60405161028b9c9b9a99989796959493929190614e11565b60405180910390f35b6102ae60048036036102a991908101906143e3565b612d1a565b6040516102c19796959493929190614d17565b60405180910390f35b6102e460048036036102df91908101906148ec565b61338e565b005b61030060048036036102fb91908101906143e3565b61347e565b6040516103109493929190614db7565b60405180910390f35b610333600480360361032e9190810190614424565b613730565b005b61033d613fd3565b6040518060c00160405280888152602001878152602001868152602001858152602001848152602001831515815250905060028860405161037e9190614c3e565b9081526020016040518091039020819080600181540180825580915050906001820390600052602060002090600602016000909192909190915060008201518160000190805190602001906103d492919061400b565b506020820151816001015560408201518160020155606082015181600301908051906020019061040592919061400b565b50608082015181600401908051906020019061042292919061408b565b5060a08201518160050160006101000a81548160ff0219169083151502179055505050505050505050505050565b606080606080606080606060048860405161046b9190614c3e565b9081526020016040518091039020805480602002602001604051908101604052809291908181526020016000905b8282101561077857838290600052602060002090600602016040518060c0016040529081600082018054600181600116156101000203166002900480601f0160208091040260200160405190810160405280929190818152602001828054600181600116156101000203166002900480156105555780601f1061052a57610100808354040283529160200191610555565b820191906000526020600020905b81548152906001019060200180831161053857829003601f168201915b5050505050815260200160018201548152602001600282018054600181600116156101000203166002900480601f0160208091040260200160405190810160405280929190818152602001828054600181600116156101000203166002900480156106015780601f106105d657610100808354040283529160200191610601565b820191906000526020600020905b8154815290600101906020018083116105e457829003601f168201915b50505050508152602001600382018054600181600116156101000203166002900480601f0160208091040260200160405190810160405280929190818152602001828054600181600116156101000203166002900480156106a35780601f10610678576101008083540402835291602001916106a3565b820191906000526020600020905b81548152906001019060200180831161068657829003601f168201915b50505050508152602001600482018054600181600116156101000203166002900480601f0160208091040260200160405190810160405280929190818152602001828054600181600116156101000203166002900480156107455780601f1061071a57610100808354040283529160200191610745565b820191906000526020600020905b81548152906001019060200180831161072857829003601f168201915b505050505081526020016005820160009054906101000a900460ff16151515158152505081526020019060010190610499565b50505050905080516040519080825280602002602001820160405280156107b357816020015b606081526020019060019003908161079e5790505b50965080516040519080825280602002602001820160405280156107e65781602001602082028038833980820191505090505b509550805160405190808252806020026020018201604052801561081e57816020015b60608152602001906001900390816108095790505b509450805160405190808252806020026020018201604052801561085657816020015b60608152602001906001900390816108415790505b509350805160405190808252806020026020018201604052801561088e57816020015b60608152602001906001900390816108795790505b50925080516040519080825280602002602001820160405280156108c15781602001602082028038833980820191505090505b50915060008090505b8151811015610a02578181815181106108df57fe5b6020026020010151600001518882815181106108f757fe5b602002602001018190525081818151811061090e57fe5b60200260200101516020015187828151811061092657fe5b60200260200101818152505081818151811061093e57fe5b60200260200101516040015186828151811061095657fe5b602002602001018190525081818151811061096d57fe5b60200260200101516060015185828151811061098557fe5b602002602001018190525081818151811061099c57fe5b6020026020010151608001518482815181106109b457fe5b60200260200101819052508181815181106109cb57fe5b602002602001015160a001518382815181106109e357fe5b60200260200101901515908115158152505080806001019150506108ca565b508686868686869650965096509650965096505091939550919395565b610a276140eb565b6040518061018001604052808781526020018681526020018581526020018481526020016040518060200160405280600081525081526020016040518060200160405280600081525081526020016040518060200160405280600081525081526020016000604051908082528060200260200182016040528015610abf57816020015b6060815260200190600190039081610aaa5790505b50815260200160405180602001604052806000815250815260200183815260200160001515815260200160001515815250905080600087604051610b039190614c3e565b90815260200160405180910390206000820151816000019080519060200190610b2d92919061400b565b506020820151816001019080519060200190610b4a92919061400b565b506040820151816002019080519060200190610b6792919061400b565b506060820151816003019080519060200190610b8492919061400b565b506080820151816004019080519060200190610ba192919061400b565b5060a0820151816005019080519060200190610bbe92919061400b565b5060c0820151816006019080519060200190610bdb92919061400b565b5060e0820151816007019080519060200190610bf892919061408b565b50610100820151816008019080519060200190610c1692919061400b565b50610120820151816009019080519060200190610c3492919061400b565b5061014082015181600a0160006101000a81548160ff02191690831515021790555061016082015181600a0160016101000a81548160ff021916908315150217905550905050505050505050565b610c8a614150565b6040518060800160405280868152602001858152602001848152602001831515815250905080600187604051610cc09190614c3e565b90815260200160405180910390206000820151816000019080519060200190610cea92919061400b565b506020820151816001019080519060200190610d0792919061400b565b506040820151816002019080519060200190610d2492919061408b565b5060608201518160030160006101000a81548160ff021916908315150217905550905050505050505050565b610d5861417a565b6040518060400160405280848152602001838152509050600584604051610d7f9190614c3e565b908152602001604051809103902081908060018154018082558091505090600182039060005260206000209060020201600090919290919091506000820151816000019080519060200190610dd592919061400b565b506020820151816001015550505050505050565b610df16140eb565b600087604051610e019190614c3e565b908152602001604051809103902060405180610180016040529081600082018054600181600116156101000203166002900480601f016020809104026020016040519081016040528092919081815260200182805460018160011615610100020316600290048015610eb45780601f10610e8957610100808354040283529160200191610eb4565b820191906000526020600020905b815481529060010190602001808311610e9757829003601f168201915b50505050508152602001600182018054600181600116156101000203166002900480601f016020809104026020016040519081016040528092919081815260200182805460018160011615610100020316600290048015610f565780601f10610f2b57610100808354040283529160200191610f56565b820191906000526020600020905b815481529060010190602001808311610f3957829003601f168201915b50505050508152602001600282018054600181600116156101000203166002900480601f016020809104026020016040519081016040528092919081815260200182805460018160011615610100020316600290048015610ff85780601f10610fcd57610100808354040283529160200191610ff8565b820191906000526020600020905b815481529060010190602001808311610fdb57829003601f168201915b50505050508152602001600382018054600181600116156101000203166002900480601f01602080910402602001604051908101604052809291908181526020018280546001816001161561010002031660029004801561109a5780601f1061106f5761010080835404028352916020019161109a565b820191906000526020600020905b81548152906001019060200180831161107d57829003601f168201915b50505050508152602001600482018054600181600116156101000203166002900480601f01602080910402602001604051908101604052809291908181526020018280546001816001161561010002031660029004801561113c5780601f106111115761010080835404028352916020019161113c565b820191906000526020600020905b81548152906001019060200180831161111f57829003601f168201915b50505050508152602001600582018054600181600116156101000203166002900480601f0160208091040260200160405190810160405280929190818152602001828054600181600116156101000203166002900480156111de5780601f106111b3576101008083540402835291602001916111de565b820191906000526020600020905b8154815290600101906020018083116111c157829003601f168201915b50505050508152602001600682018054600181600116156101000203166002900480601f0160208091040260200160405190810160405280929190818152602001828054600181600116156101000203166002900480156112805780601f1061125557610100808354040283529160200191611280565b820191906000526020600020905b81548152906001019060200180831161126357829003601f168201915b5050505050815260200160078201805480602002602001604051908101604052809291908181526020016000905b8282101561136a578382906000526020600020018054600181600116156101000203166002900480601f0160208091040260200160405190810160405280929190818152602001828054600181600116156101000203166002900480156113565780601f1061132b57610100808354040283529160200191611356565b820191906000526020600020905b81548152906001019060200180831161133957829003601f168201915b5050505050815260200190600101906112ae565b505050508152602001600882018054600181600116156101000203166002900480601f01602080910402602001604051908101604052809291908181526020018280546001816001161561010002031660029004801561140b5780601f106113e05761010080835404028352916020019161140b565b820191906000526020600020905b8154815290600101906020018083116113ee57829003601f168201915b50505050508152602001600982018054600181600116156101000203166002900480601f0160208091040260200160405190810160405280929190818152602001828054600181600116156101000203166002900480156114ad5780601f10611482576101008083540402835291602001916114ad565b820191906000526020600020905b81548152906001019060200180831161149057829003601f168201915b50505050508152602001600a820160009054906101000a900460ff16151515158152602001600a820160019054906101000a900460ff1615151515815250509050858160800181905250848160a00181905250838160c00181905250828160e00181905250818161010001819052508060008860405161152d9190614c3e565b9081526020016040518091039020600082015181600001908051906020019061155792919061400b565b50602082015181600101908051906020019061157492919061400b565b50604082015181600201908051906020019061159192919061400b565b5060608201518160030190805190602001906115ae92919061400b565b5060808201518160040190805190602001906115cb92919061400b565b5060a08201518160050190805190602001906115e892919061400b565b5060c082015181600601908051906020019061160592919061400b565b5060e082015181600701908051906020019061162292919061408b565b5061010082015181600801908051906020019061164092919061400b565b5061012082015181600901908051906020019061165e92919061400b565b5061014082015181600a0160006101000a81548160ff02191690831515021790555061016082015181600a0160016101000a81548160ff02191690831515021790555090505050505050505050565b606060008060608060006116bf614194565b6003886040516116cf9190614c3e565b90815260200160405180910390206040518060c0016040529081600082018054600181600116156101000203166002900480601f0160208091040260200160405190810160405280929190818152602001828054600181600116156101000203166002900480156117815780601f1061175657610100808354040283529160200191611781565b820191906000526020600020905b81548152906001019060200180831161176457829003601f168201915b505050505081526020016001820154815260200160028201548152602001600382018054600181600116156101000203166002900480601f0160208091040260200160405190810160405280929190818152602001828054600181600116156101000203166002900480156118375780601f1061180c57610100808354040283529160200191611837565b820191906000526020600020905b81548152906001019060200180831161181a57829003601f168201915b5050505050815260200160048201805480602002602001604051908101604052809291908181526020016000905b82821015611921578382906000526020600020018054600181600116156101000203166002900480601f01602080910402602001604051908101604052809291908181526020018280546001816001161561010002031660029004801561190d5780601f106118e25761010080835404028352916020019161190d565b820191906000526020600020905b8154815290600101906020018083116118f057829003601f168201915b505050505081526020019060010190611865565b5050505081526020016005820160009054906101000a900460ff161515151581525050905080600001519650806020015195508060400151945080606001519350806080015192508060a0015191508686868686869650965096509650965096505091939550919395565b6119946140eb565b6000836040516119a49190614c3e565b908152602001604051809103902060405180610180016040529081600082018054600181600116156101000203166002900480601f016020809104026020016040519081016040528092919081815260200182805460018160011615610100020316600290048015611a575780601f10611a2c57610100808354040283529160200191611a57565b820191906000526020600020905b815481529060010190602001808311611a3a57829003601f168201915b50505050508152602001600182018054600181600116156101000203166002900480601f016020809104026020016040519081016040528092919081815260200182805460018160011615610100020316600290048015611af95780601f10611ace57610100808354040283529160200191611af9565b820191906000526020600020905b815481529060010190602001808311611adc57829003601f168201915b50505050508152602001600282018054600181600116156101000203166002900480601f016020809104026020016040519081016040528092919081815260200182805460018160011615610100020316600290048015611b9b5780601f10611b7057610100808354040283529160200191611b9b565b820191906000526020600020905b815481529060010190602001808311611b7e57829003601f168201915b50505050508152602001600382018054600181600116156101000203166002900480601f016020809104026020016040519081016040528092919081815260200182805460018160011615610100020316600290048015611c3d5780601f10611c1257610100808354040283529160200191611c3d565b820191906000526020600020905b815481529060010190602001808311611c2057829003601f168201915b50505050508152602001600482018054600181600116156101000203166002900480601f016020809104026020016040519081016040528092919081815260200182805460018160011615610100020316600290048015611cdf5780601f10611cb457610100808354040283529160200191611cdf565b820191906000526020600020905b815481529060010190602001808311611cc257829003601f168201915b50505050508152602001600582018054600181600116156101000203166002900480601f016020809104026020016040519081016040528092919081815260200182805460018160011615610100020316600290048015611d815780601f10611d5657610100808354040283529160200191611d81565b820191906000526020600020905b815481529060010190602001808311611d6457829003601f168201915b50505050508152602001600682018054600181600116156101000203166002900480601f016020809104026020016040519081016040528092919081815260200182805460018160011615610100020316600290048015611e235780601f10611df857610100808354040283529160200191611e23565b820191906000526020600020905b815481529060010190602001808311611e0657829003601f168201915b5050505050815260200160078201805480602002602001604051908101604052809291908181526020016000905b82821015611f0d578382906000526020600020018054600181600116156101000203166002900480601f016020809104026020016040519081016040528092919081815260200182805460018160011615610100020316600290048015611ef95780601f10611ece57610100808354040283529160200191611ef9565b820191906000526020600020905b815481529060010190602001808311611edc57829003601f168201915b505050505081526020019060010190611e51565b505050508152602001600882018054600181600116156101000203166002900480601f016020809104026020016040519081016040528092919081815260200182805460018160011615610100020316600290048015611fae5780601f10611f8357610100808354040283529160200191611fae565b820191906000526020600020905b815481529060010190602001808311611f9157829003601f168201915b50505050508152602001600982018054600181600116156101000203166002900480601f0160208091040260200160405190810160405280929190818152602001828054600181600116156101000203166002900480156120505780601f1061202557610100808354040283529160200191612050565b820191906000526020600020905b81548152906001019060200180831161203357829003601f168201915b50505050508152602001600a820160009054906101000a900460ff16151515158152602001600a820160019054906101000a900460ff16151515158152505090508181610160019015159081151581525050806000846040516120b39190614c3e565b908152602001604051809103902060008201518160000190805190602001906120dd92919061400b565b5060208201518160010190805190602001906120fa92919061400b565b50604082015181600201908051906020019061211792919061400b565b50606082015181600301908051906020019061213492919061400b565b50608082015181600401908051906020019061215192919061400b565b5060a082015181600501908051906020019061216e92919061400b565b5060c082015181600601908051906020019061218b92919061400b565b5060e08201518160070190805190602001906121a892919061408b565b506101008201518160080190805190602001906121c692919061400b565b506101208201518160090190805190602001906121e492919061400b565b5061014082015181600a0160006101000a81548160ff02191690831515021790555061016082015181600a0160016101000a81548160ff021916908315150217905550905050505050565b60608060606005846040516122449190614c3e565b9081526020016040518091039020805480602002602001604051908101604052809291908181526020016000905b828210156123505783829060005260206000209060020201604051806040016040529081600082018054600181600116156101000203166002900480601f01602080910402602001604051908101604052809291908181526020018280546001816001161561010002031660029004801561232e5780601f106123035761010080835404028352916020019161232e565b820191906000526020600020905b81548152906001019060200180831161231157829003601f168201915b5050505050815260200160018201548152505081526020019060010190612272565b505050509050805160405190808252806020026020018201604052801561238b57816020015b60608152602001906001900390816123765790505b50925080516040519080825280602002602001820160405280156123be5781602001602082028038833980820191505090505b50915060008090505b815181101561243c578181815181106123dc57fe5b6020026020010151600001518482815181106123f457fe5b602002602001018190525081818151811061240b57fe5b60200260200101516020015183828151811061242357fe5b60200260200101818152505080806001019150506123c7565b5082829250925050915091565b6124516141cc565b6040518060c0016040528088815260200187815260200186815260200185815260200184815260200183151581525090506004886040516124929190614c3e565b9081526020016040518091039020819080600181540180825580915050906001820390600052602060002090600602016000909192909190915060008201518160000190805190602001906124e892919061400b565b5060208201518160010155604082015181600201908051906020019061250f92919061400b565b50606082015181600301908051906020019061252c92919061400b565b50608082015181600401908051906020019061254992919061400b565b5060a08201518160050160006101000a81548160ff0219169083151502179055505050505050505050505050565b6060806060806060806060806060806000806125916140eb565b60008e6040516125a19190614c3e565b908152602001604051809103902060405180610180016040529081600082018054600181600116156101000203166002900480601f0160208091040260200160405190810160405280929190818152602001828054600181600116156101000203166002900480156126545780601f1061262957610100808354040283529160200191612654565b820191906000526020600020905b81548152906001019060200180831161263757829003601f168201915b50505050508152602001600182018054600181600116156101000203166002900480601f0160208091040260200160405190810160405280929190818152602001828054600181600116156101000203166002900480156126f65780601f106126cb576101008083540402835291602001916126f6565b820191906000526020600020905b8154815290600101906020018083116126d957829003601f168201915b50505050508152602001600282018054600181600116156101000203166002900480601f0160208091040260200160405190810160405280929190818152602001828054600181600116156101000203166002900480156127985780601f1061276d57610100808354040283529160200191612798565b820191906000526020600020905b81548152906001019060200180831161277b57829003601f168201915b50505050508152602001600382018054600181600116156101000203166002900480601f01602080910402602001604051908101604052809291908181526020018280546001816001161561010002031660029004801561283a5780601f1061280f5761010080835404028352916020019161283a565b820191906000526020600020905b81548152906001019060200180831161281d57829003601f168201915b50505050508152602001600482018054600181600116156101000203166002900480601f0160208091040260200160405190810160405280929190818152602001828054600181600116156101000203166002900480156128dc5780601f106128b1576101008083540402835291602001916128dc565b820191906000526020600020905b8154815290600101906020018083116128bf57829003601f168201915b50505050508152602001600582018054600181600116156101000203166002900480601f01602080910402602001604051908101604052809291908181526020018280546001816001161561010002031660029004801561297e5780601f106129535761010080835404028352916020019161297e565b820191906000526020600020905b81548152906001019060200180831161296157829003601f168201915b50505050508152602001600682018054600181600116156101000203166002900480601f016020809104026020016040519081016040528092919081815260200182805460018160011615610100020316600290048015612a205780601f106129f557610100808354040283529160200191612a20565b820191906000526020600020905b815481529060010190602001808311612a0357829003601f168201915b5050505050815260200160078201805480602002602001604051908101604052809291908181526020016000905b82821015612b0a578382906000526020600020018054600181600116156101000203166002900480601f016020809104026020016040519081016040528092919081815260200182805460018160011615610100020316600290048015612af65780601f10612acb57610100808354040283529160200191612af6565b820191906000526020600020905b815481529060010190602001808311612ad957829003601f168201915b505050505081526020019060010190612a4e565b505050508152602001600882018054600181600116156101000203166002900480601f016020809104026020016040519081016040528092919081815260200182805460018160011615610100020316600290048015612bab5780601f10612b8057610100808354040283529160200191612bab565b820191906000526020600020905b815481529060010190602001808311612b8e57829003601f168201915b50505050508152602001600982018054600181600116156101000203166002900480601f016020809104026020016040519081016040528092919081815260200182805460018160011615610100020316600290048015612c4d5780601f10612c2257610100808354040283529160200191612c4d565b820191906000526020600020905b815481529060010190602001808311612c3057829003601f168201915b50505050508152602001600a820160009054906101000a900460ff16151515158152602001600a820160019054906101000a900460ff161515151581525050905080600001519c5080602001519b5080604001519a5080606001519950806080015198508060a0015197508060c0015196508060e00151955080610100015194508061012001519350806101400151925080610160015191508c8c8c8c8c8c8c8c8c8c8c8c9c509c509c509c509c509c509c509c509c509c509c509c505091939597999b5091939597999b565b606080606080606080606080600289604051612d369190614c3e565b9081526020016040518091039020805480602002602001604051908101604052809291908181526020016000905b82821015612ff257838290600052602060002090600602016040518060c0016040529081600082018054600181600116156101000203166002900480601f016020809104026020016040519081016040528092919081815260200182805460018160011615610100020316600290048015612e205780601f10612df557610100808354040283529160200191612e20565b820191906000526020600020905b815481529060010190602001808311612e0357829003601f168201915b505050505081526020016001820154815260200160028201548152602001600382018054600181600116156101000203166002900480601f016020809104026020016040519081016040528092919081815260200182805460018160011615610100020316600290048015612ed65780601f10612eab57610100808354040283529160200191612ed6565b820191906000526020600020905b815481529060010190602001808311612eb957829003601f168201915b5050505050815260200160048201805480602002602001604051908101604052809291908181526020016000905b82821015612fc0578382906000526020600020018054600181600116156101000203166002900480601f016020809104026020016040519081016040528092919081815260200182805460018160011615610100020316600290048015612fac5780601f10612f8157610100808354040283529160200191612fac565b820191906000526020600020905b815481529060010190602001808311612f8f57829003601f168201915b505050505081526020019060010190612f04565b5050505081526020016005820160009054906101000a900460ff16151515158152505081526020019060010190612d64565b5050505090506000809050815160405190808252806020026020018201604052801561303257816020015b606081526020019060019003908161301d5790505b50985081516040519080825280602002602001820160405280156130655781602001602082028038833980820191505090505b50975081516040519080825280602002602001820160405280156130985781602001602082028038833980820191505090505b50965081516040519080825280602002602001820160405280156130d057816020015b60608152602001906001900390816130bb5790505b50955081516040519080825280602002602001820160405280156131035781602001602082028038833980820191505090505b50925081516040519080825280602002602001820160405280156131365781602001602082028038833980820191505090505b50945060008090505b82518110156132975782818151811061315457fe5b6020026020010151600001518a828151811061316c57fe5b602002602001018190525082818151811061318357fe5b60200260200101516020015189828151811061319b57fe5b6020026020010181815250508281815181106131b357fe5b6020026020010151604001518882815181106131cb57fe5b6020026020010181815250508281815181106131e357fe5b6020026020010151606001518782815181106131fb57fe5b602002602001018190525082818151811061321257fe5b602002602001015160a0015184828151811061322a57fe5b60200260200101901515908115158152505082818151811061324857fe5b6020026020010151608001515186828151811061326157fe5b60200260200101818152505082818151811061327957fe5b6020026020010151608001515182019150808060010191505061313f565b50806040519080825280602002602001820160405280156132cc57816020015b60608152602001906001900390816132b75790505b5093506000905060008090505b825181101561336b5760008090505b8382815181106132f457fe5b6020026020010151608001515181101561335d5783828151811061331457fe5b602002602001015160800151818151811061332b57fe5b602002602001015186848060010195508151811061334557fe5b602002602001018190525080806001019150506132e8565b5080806001019150506132d9565b508888888888888898509850985098509850985098505050919395979092949650565b613396614194565b6040518060c001604052808881526020018781526020018681526020018581526020018481526020018315158152509050806003896040516133d89190614c3e565b9081526020016040518091039020600082015181600001908051906020019061340292919061400b565b506020820151816001015560408201518160020155606082015181600301908051906020019061343392919061400b565b50608082015181600401908051906020019061345092919061408b565b5060a08201518160050160006101000a81548160ff0219169083151502179055509050505050505050505050565b6060806060600061348d614150565b60018660405161349d9190614c3e565b9081526020016040518091039020604051806080016040529081600082018054600181600116156101000203166002900480601f01602080910402602001604051908101604052809291908181526020018280546001816001161561010002031660029004801561354f5780601f106135245761010080835404028352916020019161354f565b820191906000526020600020905b81548152906001019060200180831161353257829003601f168201915b50505050508152602001600182018054600181600116156101000203166002900480601f0160208091040260200160405190810160405280929190818152602001828054600181600116156101000203166002900480156135f15780601f106135c6576101008083540402835291602001916135f1565b820191906000526020600020905b8154815290600101906020018083116135d457829003601f168201915b5050505050815260200160028201805480602002602001604051908101604052809291908181526020016000905b828210156136db578382906000526020600020018054600181600116156101000203166002900480601f0160208091040260200160405190810160405280929190818152602001828054600181600116156101000203166002900480156136c75780601f1061369c576101008083540402835291602001916136c7565b820191906000526020600020905b8154815290600101906020018083116136aa57829003601f168201915b50505050508152602001906001019061361f565b5050505081526020016003820160009054906101000a900460ff161515151581525050905080600001519450806020015193508060400151925080606001519150848484849450945094509450509193509193565b6137386140eb565b6000836040516137489190614c3e565b908152602001604051809103902060405180610180016040529081600082018054600181600116156101000203166002900480601f0160208091040260200160405190810160405280929190818152602001828054600181600116156101000203166002900480156137fb5780601f106137d0576101008083540402835291602001916137fb565b820191906000526020600020905b8154815290600101906020018083116137de57829003601f168201915b50505050508152602001600182018054600181600116156101000203166002900480601f01602080910402602001604051908101604052809291908181526020018280546001816001161561010002031660029004801561389d5780601f106138725761010080835404028352916020019161389d565b820191906000526020600020905b81548152906001019060200180831161388057829003601f168201915b50505050508152602001600282018054600181600116156101000203166002900480601f01602080910402602001604051908101604052809291908181526020018280546001816001161561010002031660029004801561393f5780601f106139145761010080835404028352916020019161393f565b820191906000526020600020905b81548152906001019060200180831161392257829003601f168201915b50505050508152602001600382018054600181600116156101000203166002900480601f0160208091040260200160405190810160405280929190818152602001828054600181600116156101000203166002900480156139e15780601f106139b6576101008083540402835291602001916139e1565b820191906000526020600020905b8154815290600101906020018083116139c457829003601f168201915b50505050508152602001600482018054600181600116156101000203166002900480601f016020809104026020016040519081016040528092919081815260200182805460018160011615610100020316600290048015613a835780601f10613a5857610100808354040283529160200191613a83565b820191906000526020600020905b815481529060010190602001808311613a6657829003601f168201915b50505050508152602001600582018054600181600116156101000203166002900480601f016020809104026020016040519081016040528092919081815260200182805460018160011615610100020316600290048015613b255780601f10613afa57610100808354040283529160200191613b25565b820191906000526020600020905b815481529060010190602001808311613b0857829003601f168201915b50505050508152602001600682018054600181600116156101000203166002900480601f016020809104026020016040519081016040528092919081815260200182805460018160011615610100020316600290048015613bc75780601f10613b9c57610100808354040283529160200191613bc7565b820191906000526020600020905b815481529060010190602001808311613baa57829003601f168201915b5050505050815260200160078201805480602002602001604051908101604052809291908181526020016000905b82821015613cb1578382906000526020600020018054600181600116156101000203166002900480601f016020809104026020016040519081016040528092919081815260200182805460018160011615610100020316600290048015613c9d5780601f10613c7257610100808354040283529160200191613c9d565b820191906000526020600020905b815481529060010190602001808311613c8057829003601f168201915b505050505081526020019060010190613bf5565b505050508152602001600882018054600181600116156101000203166002900480601f016020809104026020016040519081016040528092919081815260200182805460018160011615610100020316600290048015613d525780601f10613d2757610100808354040283529160200191613d52565b820191906000526020600020905b815481529060010190602001808311613d3557829003601f168201915b50505050508152602001600982018054600181600116156101000203166002900480601f016020809104026020016040519081016040528092919081815260200182805460018160011615610100020316600290048015613df45780601f10613dc957610100808354040283529160200191613df4565b820191906000526020600020905b815481529060010190602001808311613dd757829003601f168201915b50505050508152602001600a820160009054906101000a900460ff16151515158152602001600a820160019054906101000a900460ff1615151515815250509050818161014001901515908115158152505080600084604051613e579190614c3e565b90815260200160405180910390206000820151816000019080519060200190613e8192919061400b565b506020820151816001019080519060200190613e9e92919061400b565b506040820151816002019080519060200190613ebb92919061400b565b506060820151816003019080519060200190613ed892919061400b565b506080820151816004019080519060200190613ef592919061400b565b5060a0820151816005019080519060200190613f1292919061400b565b5060c0820151816006019080519060200190613f2f92919061400b565b5060e0820151816007019080519060200190613f4c92919061408b565b50610100820151816008019080519060200190613f6a92919061400b565b50610120820151816009019080519060200190613f8892919061400b565b5061014082015181600a0160006101000a81548160ff02191690831515021790555061016082015181600a0160016101000a81548160ff021916908315150217905550905050505050565b6040518060c0016040528060608152602001600081526020016000815260200160608152602001606081526020016000151581525090565b828054600181600116156101000203166002900490600052602060002090601f016020900481019282601f1061404c57805160ff191683800117855561407a565b8280016001018555821561407a579182015b8281111561407957825182559160200191906001019061405e565b5b5090506140879190614204565b5090565b8280548282559060005260206000209081019282156140da579160200282015b828111156140d95782518290805190602001906140c992919061400b565b50916020019190600101906140ab565b5b5090506140e79190614229565b5090565b604051806101800160405280606081526020016060815260200160608152602001606081526020016060815260200160608152602001606081526020016060815260200160608152602001606081526020016000151581526020016000151581525090565b60405180608001604052806060815260200160608152602001606081526020016000151581525090565b604051806040016040528060608152602001600081525090565b6040518060c0016040528060608152602001600081526020016000815260200160608152602001606081526020016000151581525090565b6040518060c0016040528060608152602001600081526020016060815260200160608152602001606081526020016000151581525090565b61422691905b8082111561422257600081600090555060010161420a565b5090565b90565b61425291905b8082111561424e57600081816142459190614255565b5060010161422f565b5090565b90565b50805460018160011615610100020316600290046000825580601f1061427b575061429a565b601f0160209004906000526020600020908101906142999190614204565b5b50565b600082601f8301126142ae57600080fd5b81356142c16142bc82614fb4565b614f87565b9150818183526020840193506020810190508360005b8381101561430757813586016142ed8882614326565b8452602084019350602083019250506001810190506142d7565b5050505092915050565b6000813590506143208161518b565b92915050565b600082601f83011261433757600080fd5b813561434a61434582614fdc565b614f87565b9150808252602083016020830185838301111561436657600080fd5b614371838284615138565b50505092915050565b600082601f83011261438b57600080fd5b813561439e61439982615008565b614f87565b915080825260208301602083018583830111156143ba57600080fd5b6143c5838284615138565b50505092915050565b6000813590506143dd816151a2565b92915050565b6000602082840312156143f557600080fd5b600082013567ffffffffffffffff81111561440f57600080fd5b61441b8482850161437a565b91505092915050565b6000806040838503121561443757600080fd5b600083013567ffffffffffffffff81111561445157600080fd5b61445d8582860161437a565b925050602061446e85828601614311565b9150509250929050565b600080600080600060a0868803121561449057600080fd5b600086013567ffffffffffffffff8111156144aa57600080fd5b6144b68882890161437a565b955050602086013567ffffffffffffffff8111156144d357600080fd5b6144df8882890161437a565b945050604086013567ffffffffffffffff8111156144fc57600080fd5b6145088882890161437a565b935050606086013567ffffffffffffffff81111561452557600080fd5b6145318882890161429d565b925050608061454288828901614311565b9150509295509295909350565b60008060008060008060c0878903121561456857600080fd5b600087013567ffffffffffffffff81111561458257600080fd5b61458e89828a0161437a565b965050602087013567ffffffffffffffff8111156145ab57600080fd5b6145b789828a0161437a565b955050604087013567ffffffffffffffff8111156145d457600080fd5b6145e089828a0161437a565b945050606087013567ffffffffffffffff8111156145fd57600080fd5b61460989828a0161437a565b935050608087013567ffffffffffffffff81111561462657600080fd5b61463289828a0161429d565b92505060a087013567ffffffffffffffff81111561464f57600080fd5b61465b89828a0161437a565b9150509295509295509295565b600080600080600060a0868803121561468057600080fd5b600086013567ffffffffffffffff81111561469a57600080fd5b6146a68882890161437a565b955050602086013567ffffffffffffffff8111156146c357600080fd5b6146cf8882890161437a565b945050604086013567ffffffffffffffff8111156146ec57600080fd5b6146f88882890161437a565b935050606086013567ffffffffffffffff81111561471557600080fd5b6147218882890161437a565b925050608086013567ffffffffffffffff81111561473e57600080fd5b61474a8882890161437a565b9150509295509295909350565b60008060006060848603121561476c57600080fd5b600084013567ffffffffffffffff81111561478657600080fd5b6147928682870161437a565b935050602084013567ffffffffffffffff8111156147af57600080fd5b6147bb8682870161437a565b92505060406147cc868287016143ce565b9150509250925092565b600080600080600080600060e0888a0312156147f157600080fd5b600088013567ffffffffffffffff81111561480b57600080fd5b6148178a828b0161437a565b975050602088013567ffffffffffffffff81111561483457600080fd5b6148408a828b0161437a565b96505060406148518a828b016143ce565b955050606088013567ffffffffffffffff81111561486e57600080fd5b61487a8a828b0161437a565b945050608088013567ffffffffffffffff81111561489757600080fd5b6148a38a828b0161437a565b93505060a088013567ffffffffffffffff8111156148c057600080fd5b6148cc8a828b0161437a565b92505060c06148dd8a828b01614311565b91505092959891949750929550565b600080600080600080600060e0888a03121561490757600080fd5b600088013567ffffffffffffffff81111561492157600080fd5b61492d8a828b0161437a565b975050602088013567ffffffffffffffff81111561494a57600080fd5b6149568a828b0161437a565b96505060406149678a828b016143ce565b95505060606149788a828b016143ce565b945050608088013567ffffffffffffffff81111561499557600080fd5b6149a18a828b0161437a565b93505060a088013567ffffffffffffffff8111156149be57600080fd5b6149ca8a828b0161429d565b92505060c06149db8a828b01614311565b91505092959891949750929550565b60006149f68383614b5f565b60208301905092915050565b6000614a0e8383614be7565b905092915050565b6000614a228383614c20565b60208301905092915050565b6000614a3982615064565b614a4381856150c2565b9350614a4e83615034565b8060005b83811015614a7f578151614a6688826149ea565b9750614a718361509b565b925050600181019050614a52565b5085935050505092915050565b6000614a978261506f565b614aa181856150d3565b935083602082028501614ab385615044565b8060005b85811015614aef5784840389528151614ad08582614a02565b9450614adb836150a8565b925060208a01995050600181019050614ab7565b50829750879550505050505092915050565b6000614b0c8261507a565b614b1681856150e4565b9350614b2183615054565b8060005b83811015614b52578151614b398882614a16565b9750614b44836150b5565b925050600181019050614b25565b5085935050505092915050565b614b6881615122565b82525050565b614b7781615122565b82525050565b6000614b8882615090565b614b928185615106565b9350614ba2818560208601615147565b614bab8161517a565b840191505092915050565b6000614bc182615090565b614bcb8185615117565b9350614bdb818560208601615147565b80840191505092915050565b6000614bf282615085565b614bfc81856150f5565b9350614c0c818560208601615147565b614c158161517a565b840191505092915050565b614c298161512e565b82525050565b614c388161512e565b82525050565b6000614c4a8284614bb6565b915081905092915050565b60006040820190508181036000830152614c6f8185614a8c565b90508181036020830152614c838184614b01565b90509392505050565b600060c0820190508181036000830152614ca68189614a8c565b90508181036020830152614cba8188614b01565b90508181036040830152614cce8187614a8c565b90508181036060830152614ce28186614a8c565b90508181036080830152614cf68185614a8c565b905081810360a0830152614d0a8184614a2e565b9050979650505050505050565b600060e0820190508181036000830152614d31818a614a8c565b90508181036020830152614d458189614b01565b90508181036040830152614d598188614b01565b90508181036060830152614d6d8187614a8c565b90508181036080830152614d818186614b01565b905081810360a0830152614d958185614a8c565b905081810360c0830152614da98184614a2e565b905098975050505050505050565b60006080820190508181036000830152614dd18187614b7d565b90508181036020830152614de58186614b7d565b90508181036040830152614df98185614a8c565b9050614e086060830184614b6e565b95945050505050565b6000610180820190508181036000830152614e2c818f614b7d565b90508181036020830152614e40818e614b7d565b90508181036040830152614e54818d614b7d565b90508181036060830152614e68818c614b7d565b90508181036080830152614e7c818b614b7d565b905081810360a0830152614e90818a614b7d565b905081810360c0830152614ea48189614b7d565b905081810360e0830152614eb88188614a8c565b9050818103610100830152614ecd8187614b7d565b9050818103610120830152614ee28186614b7d565b9050614ef2610140830185614b6e565b614f00610160830184614b6e565b9d9c50505050505050505050505050565b600060c0820190508181036000830152614f2b8189614b7d565b9050614f3a6020830188614c2f565b614f476040830187614c2f565b8181036060830152614f598186614b7d565b90508181036080830152614f6d8185614a8c565b9050614f7c60a0830184614b6e565b979650505050505050565b6000604051905081810181811067ffffffffffffffff82111715614faa57600080fd5b8060405250919050565b600067ffffffffffffffff821115614fcb57600080fd5b602082029050602081019050919050565b600067ffffffffffffffff821115614ff357600080fd5b601f19601f8301169050602081019050919050565b600067ffffffffffffffff82111561501f57600080fd5b601f19601f8301169050602081019050919050565b6000819050602082019050919050565b6000819050602082019050919050565b6000819050602082019050919050565b600081519050919050565b600081519050919050565b600081519050919050565b600081519050919050565b600081519050919050565b6000602082019050919050565b6000602082019050919050565b6000602082019050919050565b600082825260208201905092915050565b600082825260208201905092915050565b600082825260208201905092915050565b600082825260208201905092915050565b600082825260208201905092915050565b600081905092915050565b60008115159050919050565b6000819050919050565b82818337600083830152505050565b60005b8381101561516557808201518184015260208101905061514a565b83811115615174576000848401525b50505050565b6000601f19601f8301169050919050565b61519481615122565b811461519f57600080fd5b50565b6151ab8161512e565b81146151b657600080fd5b5056fea365627a7a723158208a4077809e84ed9b5de3aa24477f79001e52a920faca05aa1577df818366d1ea6c6578706572696d656e74616cf564736f6c63430005100040",
  "source": "pragma solidity >=0.4.21 <0.7.0;\r\npragma experimental ABIEncoderV2;\r\ncontract Tea {\r\n    mapping(string =>Product) productIdInstores;\r\n    mapping(string =>Plant) plants;\r\n    mapping(string =>Process[]) processs;\r\n    mapping(string =>Storage) storages;\r\n    mapping(string =>Check[]) checks;\r\n    struct Product{\r\n        string id;               //id\r\n        string name;             //\r\n        string typeId;           //id\r\n        string batch;            //\r\n        string grade;            //\r\n        string period;           //\r\n        string store;            //\r\n        string[] img;            //\r\n        string qr;               //\r\n        string produce;          //\r\n        bool processFinish;      //\r\n        bool checkFinish;        //\r\n    }\r\n\r\n     struct Plant{\r\n        string place;            //\r\n        string planter;         //\r\n        string[] img;            //\r\n        bool finish;             //\r\n    }\r\n    mapping(string =>Pesticide[]) pesticides;\r\n    struct Pesticide{\r\n        string name;             //\r\n        uint date;               //\r\n    }\r\n    struct Process{\r\n        string method;           //\r\n        uint startDate;          //\r\n        uint endDate;            //\r\n        string processer;        //\r\n        string[] img;            //\r\n        bool finish;             //\r\n    }\r\n     struct Storage{\r\n        string place;            //\r\n        uint startDate;          //\r\n        uint endDate;            //\r\n        string storageer;        //\r\n        string[] img;            //\r\n        bool finish;             //\r\n    }\r\n     struct Check{\r\n        string typeId;           //\r\n        uint date;               //\r\n        string result;           //\r\n        string info;             //\r\n        string checker;          //\r\n        bool finish;             //\r\n    }\r\n    //\r\n    function  getProduct(string memory _id ) public view  returns (string memory id,string memory name,string memory typeId,\r\n    string memory batch,string memory grade, string memory period, string memory store, string[] memory img,\r\n    string memory qr,string memory produce,bool processFinish,bool checkFinish){\r\n        Product memory product = productIdInstores[_id];\r\n        id = product.id;\r\n        name = product.name;\r\n        typeId = product.typeId;\r\n        batch = product.batch;\r\n        grade = product.grade;\r\n        period = product.period;\r\n        store = product.store;\r\n        img = product.img;\r\n        qr = product.qr;\r\n        produce = product.produce;\r\n        processFinish = product.processFinish;\r\n        checkFinish = product.checkFinish;\r\n        return(id,name,typeId,batch,grade,period,store,img,qr,produce,processFinish,checkFinish);\r\n    }\r\n    //\r\n    function  setProduct(string memory id,string memory name,string memory typeId,string memory batch,string memory produce) public{\r\n       Product memory product = Product({\r\n           id:id,\r\n           name:name,\r\n           typeId:typeId,\r\n           batch:batch,\r\n           grade:\"\",\r\n           period:\"\",\r\n           store:\"\",\r\n           img:new string[](0),\r\n           qr:\"\",\r\n           produce:produce,\r\n           processFinish:false,\r\n           checkFinish:false\r\n       });\r\n       productIdInstores[id] = product;\r\n    }\r\n    //\r\n    function  setProductSenior(string memory _id,string memory grade, string memory period, string memory store, string[] memory img,\r\n        string memory qr) public{\r\n        Product memory product = productIdInstores[_id];\r\n        product.grade = grade;\r\n        product.period = period;\r\n        product.store = store;\r\n        product.img = img;\r\n        product.qr = qr;\r\n        productIdInstores[_id] = product;\r\n    }\r\n    //\r\n    function  setProductProcess(string memory _id,bool processFinish) public{\r\n        Product memory product = productIdInstores[_id];\r\n        product.processFinish = processFinish;\r\n        productIdInstores[_id] = product;\r\n    }\r\n    //\r\n    function  setProductCheck(string memory _id,bool checkFinish) public{\r\n        Product memory product = productIdInstores[_id];\r\n        product.checkFinish = checkFinish;\r\n        productIdInstores[_id] = product;\r\n    }\r\n    //\r\n    function  getPlant(string memory _id ) public view  returns (string memory place,string memory planter,\r\n    string[] memory img,bool finish){\r\n        Plant memory plant = plants[_id];\r\n        place = plant.place;\r\n        planter = plant.planter;\r\n        img = plant.img;\r\n        finish = plant.finish;\r\n        return(place,planter,img,finish);\r\n    }\r\n    //\r\n    function  setPlant(string memory id,string memory place,string memory planter, string[] memory img,bool finish) public{\r\n       Plant memory plant = Plant({\r\n           place:place,\r\n           planter:planter,\r\n           img:img,\r\n           finish:finish\r\n       });\r\n       plants[id] = plant;\r\n    }\r\n    //\r\n    function  getPesticide(string memory _id ) public view  returns (string[] memory name,uint[] memory date){\r\n        Pesticide[] memory pesticide = pesticides[_id];\r\n        name = new string[](pesticide.length);\r\n        date = new uint[](pesticide.length);\r\n        for(uint i = 0;i<pesticide.length;i++){\r\n            name[i] = pesticide[i].name;\r\n            date[i] = pesticide[i].date;\r\n        }\r\n        return(name,date);\r\n    }\r\n    //\r\n    function  setPesticide(string memory id,string memory name,uint date) public{\r\n       Pesticide memory pesticide = Pesticide({\r\n           name:name,\r\n           date:date\r\n       });\r\n       pesticides[id].push(pesticide);\r\n    }\r\n     //\r\n    function  getProcess(string memory _id ) public view  returns (string[] memory method,uint[] memory startDate,\r\n     uint[] memory endDate,string[] memory processer,uint[] memory num,string[] memory img,bool[] memory finish){\r\n        Process[] memory process = processs[_id];\r\n        uint z = 0;\r\n        method = new string[](process.length);\r\n        startDate = new uint[](process.length);\r\n        endDate = new uint[](process.length);\r\n        processer = new string[](process.length);\r\n        finish = new bool[](process.length);\r\n        num = new uint[](process.length);\r\n         for(uint i = 0;i<process.length;i++){\r\n            method[i] = process[i].method;\r\n            startDate[i] = process[i].startDate;\r\n            endDate[i] = process[i].endDate;\r\n            processer[i] = process[i].processer;\r\n            finish[i] = process[i].finish;\r\n            num[i] = process[i].img.length;\r\n            z += process[i].img.length;\r\n        }\r\n        img = new string[](z);\r\n        z = 0;\r\n        for(uint i = 0;i<process.length;i++){\r\n            for(uint j = 0; j<process[i].img.length;j++){\r\n                img[z++] = process[i].img[j];\r\n            }\r\n         }\r\n        return(method,startDate,endDate,processer,num,img,finish);\r\n    }\r\n    //\r\n    function  setProcess(string memory id,string memory method,uint startDate, uint endDate,\r\n    string memory processer,string[] memory img,bool finish) public{\r\n       Process memory process = Process({\r\n           method:method,\r\n           startDate:startDate,\r\n           endDate:endDate,\r\n           processer:processer,\r\n           img:img,\r\n           finish:finish\r\n       });\r\n       processs[id].push(process);\r\n    }\r\n     //\r\n    function  getStorage(string memory _id ) public view  returns (string memory place,uint startDate,\r\n    uint endDate, string memory storageer,string[] memory img,bool finish){\r\n        Storage memory stor = storages[_id];\r\n        place = stor.place;\r\n        startDate = stor.startDate;\r\n        endDate = stor.endDate;\r\n        storageer = stor.storageer;\r\n        img = stor.img;\r\n        finish = stor.finish;\r\n        return(place,startDate,endDate,storageer,img,finish);\r\n    }\r\n    //\r\n    function  setStorage(string memory id,string memory place,uint startDate,uint endDate,\r\n    string memory storageer,string[] memory img,bool finish) public{\r\n       Storage memory stor = Storage({\r\n           place:place,\r\n           startDate:startDate,\r\n           endDate:endDate,\r\n           storageer:storageer,\r\n           img:img,\r\n           finish:finish\r\n       });\r\n       storages[id] = stor;\r\n    }\r\n     //\r\n    function  getCheck(string memory _id ) public view  returns (string[] memory typeId,uint[] memory date,\r\n    string[] memory result,string[] memory info,string[] memory checker,bool[] memory finish){\r\n        Check[] memory check = checks[_id];\r\n        typeId = new string[](check.length);\r\n        date = new uint[](check.length);\r\n        result = new string[](check.length);\r\n        info = new string[](check.length);\r\n        checker = new string[](check.length);\r\n        finish = new bool[](check.length);\r\n        for(uint i = 0;i<check.length;i++){\r\n            typeId[i] = check[i].typeId;\r\n            date[i] = check[i].date;\r\n            result[i] = check[i].result;\r\n            info[i] = check[i].info;\r\n            checker[i] = check[i].checker;\r\n            finish[i] = check[i].finish;\r\n        }\r\n        return(typeId,date,result,info,checker,finish);\r\n    }\r\n    //\r\n    function  setCheck(string memory id,string memory typeId,uint date,\r\n    string memory result,string memory info,string memory checker,bool finish) public{\r\n       Check memory check = Check({\r\n           typeId:typeId,\r\n           date:date,\r\n           result:result,\r\n           info:info,\r\n           checker:checker,\r\n           finish:finish\r\n       });\r\n       checks[id].push(check);\r\n    }\r\n}",
  "sourcePath": "E:\\vscode\\tea\\contracts\\Tea.sol",
  "compiler": {
    "name": "solc",
    "version": "0.5.16+commit.9c3226ce.Emscripten.clang"
  },
  "schemaVersion": "3.0.23",
  "updatedAt": "2020-04-28T15:32:52.347Z",
  "networkType": "ethereum",
  "devdoc": {
    "methods": {}
  },
  "userdoc": {
    "methods": {}
  }
}