{
  "contractName": "Tea",
  "abi": [
    {
      "inputs": [],
      "payable": false,
      "stateMutability": "nonpayable",
      "type": "constructor"
    },
    {
      "constant": true,
      "inputs": [],
      "name": "productIndex",
      "outputs": [
        {
          "internalType": "uint256",
          "name": "",
          "type": "uint256"
        }
      ],
      "payable": false,
      "stateMutability": "view",
      "type": "function"
    }
  ],
  "bytecode": "0x6080604052348015600f57600080fd5b50600080819055506084806100256000396000f3fe6080604052348015600f57600080fd5b506004361060285760003560e01c8063c897d5a614602d575b600080fd5b60336049565b6040518082815260200191505060405180910390f35b6000548156fea265627a7a72315820c583ff50ec047defdd1ae8194d9e46dc33b2458e33512dde08bc7c62a919178d64736f6c63430005100032",
  "source": "pragma solidity >=0.4.21 <0.7.0;\r\ncontract Tea {\r\n    enum ProductStatus {\r\n        Open,\r\n        Sold,\r\n        Unsold\r\n    }\r\n    enum ProductCondition{\r\n        New,\r\n        Used\r\n    }\r\n    uint public productIndex;\r\n    mapping(address => mapping (uint=>Product)) stores;\r\n    mapping(uint =>address) productIdInstore;\r\n    struct Product{\r\n        int id;   //id\r\n        string name;             //茶名\r\n        string typeId;           //类型id\r\n        string batch;            //批次\r\n        string grade;            //等级\r\n        string period;           //保质期\r\n        string store;            //存储条件\r\n        string spare1;\r\n        string spare2;\r\n        string spare3;\r\n    }\r\n    constructor () public{\r\n        productIndex = 0;\r\n    }\r\n}",
  "sourcePath": "E:\\vscode\\tea\\contracts\\tea.sol",
  "compiler": {
    "name": "solc",
    "version": "0.5.16+commit.9c3226ce.Emscripten.clang"
  },
  "schemaVersion": "3.0.23",
  "updatedAt": "2020-03-25T03:32:33.746Z",
  "devdoc": {
    "methods": {}
  },
  "userdoc": {
    "methods": {}
  }
}