{
  "contractName": "Tea",
  "abi": [
    {
      "constant": true,
      "inputs": [
        {
          "internalType": "string",
          "name": "_id",
          "type": "string"
        }
      ],
      "name": "getProduct",
      "outputs": [
        {
          "internalType": "string",
          "name": "id",
          "type": "string"
        },
        {
          "internalType": "string",
          "name": "name",
          "type": "string"
        },
        {
          "internalType": "string",
          "name": "typeId",
          "type": "string"
        },
        {
          "internalType": "string",
          "name": "batch",
          "type": "string"
        },
        {
          "internalType": "string",
          "name": "grade",
          "type": "string"
        },
        {
          "internalType": "string",
          "name": "period",
          "type": "string"
        },
        {
          "internalType": "string",
          "name": "store",
          "type": "string"
        },
        {
          "internalType": "string[]",
          "name": "img",
          "type": "string[]"
        },
        {
          "internalType": "string",
          "name": "qr",
          "type": "string"
        }
      ],
      "payable": false,
      "stateMutability": "view",
      "type": "function"
    },
    {
      "constant": false,
      "inputs": [
        {
          "internalType": "string",
          "name": "id",
          "type": "string"
        },
        {
          "internalType": "string",
          "name": "name",
          "type": "string"
        },
        {
          "internalType": "string",
          "name": "typeId",
          "type": "string"
        },
        {
          "internalType": "string",
          "name": "batch",
          "type": "string"
        },
        {
          "internalType": "string",
          "name": "grade",
          "type": "string"
        },
        {
          "internalType": "string",
          "name": "period",
          "type": "string"
        },
        {
          "internalType": "string",
          "name": "store",
          "type": "string"
        },
        {
          "internalType": "string[]",
          "name": "img",
          "type": "string[]"
        },
        {
          "internalType": "string",
          "name": "qr",
          "type": "string"
        }
      ],
      "name": "setProduct",
      "outputs": [],
      "payable": false,
      "stateMutability": "nonpayable",
      "type": "function"
    },
    {
      "constant": true,
      "inputs": [
        {
          "internalType": "string",
          "name": "_id",
          "type": "string"
        }
      ],
      "name": "getPlant",
      "outputs": [
        {
          "internalType": "string",
          "name": "place",
          "type": "string"
        },
        {
          "internalType": "string",
          "name": "planter",
          "type": "string"
        },
        {
          "internalType": "string[]",
          "name": "img",
          "type": "string[]"
        }
      ],
      "payable": false,
      "stateMutability": "view",
      "type": "function"
    },
    {
      "constant": false,
      "inputs": [
        {
          "internalType": "string",
          "name": "id",
          "type": "string"
        },
        {
          "internalType": "string",
          "name": "place",
          "type": "string"
        },
        {
          "internalType": "string",
          "name": "planter",
          "type": "string"
        },
        {
          "internalType": "string[]",
          "name": "img",
          "type": "string[]"
        }
      ],
      "name": "setPlant",
      "outputs": [],
      "payable": false,
      "stateMutability": "nonpayable",
      "type": "function"
    },
    {
      "constant": true,
      "inputs": [
        {
          "internalType": "string",
          "name": "_id",
          "type": "string"
        }
      ],
      "name": "getPesticide",
      "outputs": [
        {
          "internalType": "string[]",
          "name": "name",
          "type": "string[]"
        },
        {
          "internalType": "uint256[]",
          "name": "date",
          "type": "uint256[]"
        }
      ],
      "payable": false,
      "stateMutability": "view",
      "type": "function"
    },
    {
      "constant": false,
      "inputs": [
        {
          "internalType": "string",
          "name": "id",
          "type": "string"
        },
        {
          "internalType": "string",
          "name": "name",
          "type": "string"
        },
        {
          "internalType": "uint256",
          "name": "date",
          "type": "uint256"
        }
      ],
      "name": "setPesticide",
      "outputs": [],
      "payable": false,
      "stateMutability": "nonpayable",
      "type": "function"
    },
    {
      "constant": true,
      "inputs": [
        {
          "internalType": "string",
          "name": "_id",
          "type": "string"
        }
      ],
      "name": "getProcess",
      "outputs": [
        {
          "internalType": "string[]",
          "name": "method",
          "type": "string[]"
        },
        {
          "internalType": "uint256[]",
          "name": "startDate",
          "type": "uint256[]"
        },
        {
          "internalType": "uint256[]",
          "name": "endDate",
          "type": "uint256[]"
        },
        {
          "internalType": "string[]",
          "name": "processer",
          "type": "string[]"
        },
        {
          "internalType": "uint256[]",
          "name": "num",
          "type": "uint256[]"
        },
        {
          "internalType": "string[]",
          "name": "img",
          "type": "string[]"
        }
      ],
      "payable": false,
      "stateMutability": "view",
      "type": "function"
    },
    {
      "constant": false,
      "inputs": [
        {
          "internalType": "string",
          "name": "id",
          "type": "string"
        },
        {
          "internalType": "string",
          "name": "method",
          "type": "string"
        },
        {
          "internalType": "uint256",
          "name": "startDate",
          "type": "uint256"
        },
        {
          "internalType": "uint256",
          "name": "endDate",
          "type": "uint256"
        },
        {
          "internalType": "string",
          "name": "processer",
          "type": "string"
        },
        {
          "internalType": "string[]",
          "name": "img",
          "type": "string[]"
        }
      ],
      "name": "setProcess",
      "outputs": [],
      "payable": false,
      "stateMutability": "nonpayable",
      "type": "function"
    },
    {
      "constant": true,
      "inputs": [
        {
          "internalType": "string",
          "name": "_id",
          "type": "string"
        }
      ],
      "name": "getStorage",
      "outputs": [
        {
          "internalType": "string",
          "name": "place",
          "type": "string"
        },
        {
          "internalType": "uint256",
          "name": "startDate",
          "type": "uint256"
        },
        {
          "internalType": "uint256",
          "name": "endDate",
          "type": "uint256"
        },
        {
          "internalType": "string",
          "name": "storageer",
          "type": "string"
        },
        {
          "internalType": "string[]",
          "name": "img",
          "type": "string[]"
        }
      ],
      "payable": false,
      "stateMutability": "view",
      "type": "function"
    },
    {
      "constant": false,
      "inputs": [
        {
          "internalType": "string",
          "name": "id",
          "type": "string"
        },
        {
          "internalType": "string",
          "name": "place",
          "type": "string"
        },
        {
          "internalType": "uint256",
          "name": "startDate",
          "type": "uint256"
        },
        {
          "internalType": "uint256",
          "name": "endDate",
          "type": "uint256"
        },
        {
          "internalType": "string",
          "name": "storageer",
          "type": "string"
        },
        {
          "internalType": "string[]",
          "name": "img",
          "type": "string[]"
        }
      ],
      "name": "setStorage",
      "outputs": [],
      "payable": false,
      "stateMutability": "nonpayable",
      "type": "function"
    },
    {
      "constant": true,
      "inputs": [
        {
          "internalType": "string",
          "name": "_id",
          "type": "string"
        }
      ],
      "name": "getCheck",
      "outputs": [
        {
          "internalType": "string[]",
          "name": "typeId",
          "type": "string[]"
        },
        {
          "internalType": "uint256[]",
          "name": "date",
          "type": "uint256[]"
        },
        {
          "internalType": "string[]",
          "name": "result",
          "type": "string[]"
        },
        {
          "internalType": "string[]",
          "name": "info",
          "type": "string[]"
        },
        {
          "internalType": "string[]",
          "name": "checker",
          "type": "string[]"
        }
      ],
      "payable": false,
      "stateMutability": "view",
      "type": "function"
    },
    {
      "constant": false,
      "inputs": [
        {
          "internalType": "string",
          "name": "id",
          "type": "string"
        },
        {
          "internalType": "string",
          "name": "typeId",
          "type": "string"
        },
        {
          "internalType": "uint256",
          "name": "date",
          "type": "uint256"
        },
        {
          "internalType": "string",
          "name": "result",
          "type": "string"
        },
        {
          "internalType": "string",
          "name": "info",
          "type": "string"
        },
        {
          "internalType": "string",
          "name": "checker",
          "type": "string"
        }
      ],
      "name": "setCheck",
      "outputs": [],
      "payable": false,
      "stateMutability": "nonpayable",
      "type": "function"
    },
    {
      "constant": true,
      "inputs": [
        {
          "internalType": "string",
          "name": "_id",
          "type": "string"
        }
      ],
      "name": "getSale",
      "outputs": [
        {
          "internalType": "string",
          "name": "place",
          "type": "string"
        },
        {
          "internalType": "string",
          "name": "method",
          "type": "string"
        },
        {
          "internalType": "uint256",
          "name": "date",
          "type": "uint256"
        },
        {
          "internalType": "string",
          "name": "saleer",
          "type": "string"
        }
      ],
      "payable": false,
      "stateMutability": "view",
      "type": "function"
    },
    {
      "constant": false,
      "inputs": [
        {
          "internalType": "string",
          "name": "id",
          "type": "string"
        },
        {
          "internalType": "string",
          "name": "place",
          "type": "string"
        },
        {
          "internalType": "string",
          "name": "method",
          "type": "string"
        },
        {
          "internalType": "uint256",
          "name": "date",
          "type": "uint256"
        },
        {
          "internalType": "string",
          "name": "saleer",
          "type": "string"
        }
      ],
      "name": "setSale",
      "outputs": [],
      "payable": false,
      "stateMutability": "nonpayable",
      "type": "function"
    }
  ],
  "bytecode": "0x608060405234801561001057600080fd5b506135a3806100206000396000f3fe608060405234801561001057600080fd5b50600436106100ea5760003560e01c80635bd052701161008c5780639a2a95de116100665780639a2a95de1461027f578063a4fdc194146102b4578063cdd13fe7146102d0578063fc49ee2914610302576100ea565b80635bd05270146101fa57806368111cce1461022b57806378babf1414610263576100ea565b80632de04e03116100c85780632de04e031461015b57806340633ef11461018e57806342aedf6a146101aa578063519e55da146101c6576100ea565b806306f8491f146100ef5780630b6d398b1461010b5780631622a9b21461013f575b600080fd5b61010960048036036101049190810190612b61565b61031e565b005b610125600480360361012091908101906128bf565b6103d4565b6040516101369594939291906130af565b60405180910390f35b61015960048036036101549190810190612900565b61091a565b005b610175600480360361017091908101906128bf565b6109bf565b60405161018594939291906132c8565b60405180910390f35b6101a860048036036101a39190810190612db8565b610c19565b005b6101c460048036036101bf9190810190612c38565b610d0b565b005b6101e060048036036101db91908101906128bf565b610da4565b6040516101f1959493929190613322565b60405180910390f35b610214600480360361020f91908101906128bf565b61105c565b604051610222929190613078565b60405180910390f35b610245600480360361024091908101906128bf565b611276565b60405161025a999897969594939291906131fc565b60405180910390f35b61027d60048036036102789190810190612db8565b61191a565b005b610299600480360361029491908101906128bf565b6119e1565b6040516102ab96959493929190613125565b60405180910390f35b6102ce60048036036102c99190810190612cb7565b611fcb565b005b6102ea60048036036102e591908101906128bf565b6120d0565b6040516102f9939291906131b0565b60405180910390f35b61031c600480360361031791908101906129c3565b61235b565b005b6103266124d9565b60405180608001604052808681526020018581526020018481526020018381525090508060058760405161035a9190613061565b90815260200160405180910390206000820151816000019080519060200190610384929190612501565b5060208201518160010190805190602001906103a1929190612501565b506040820151816002015560608201518160030190805190602001906103c8929190612501565b50905050505050505050565b6060806060806060806004876040516103ed9190613061565b9081526020016040518091039020805480602002602001604051908101604052809291908181526020016000905b828210156106df57838290600052602060002090600502016040518060a0016040529081600082018054600181600116156101000203166002900480601f0160208091040260200160405190810160405280929190818152602001828054600181600116156101000203166002900480156104d75780601f106104ac576101008083540402835291602001916104d7565b820191906000526020600020905b8154815290600101906020018083116104ba57829003601f168201915b5050505050815260200160018201548152602001600282018054600181600116156101000203166002900480601f0160208091040260200160405190810160405280929190818152602001828054600181600116156101000203166002900480156105835780601f1061055857610100808354040283529160200191610583565b820191906000526020600020905b81548152906001019060200180831161056657829003601f168201915b50505050508152602001600382018054600181600116156101000203166002900480601f0160208091040260200160405190810160405280929190818152602001828054600181600116156101000203166002900480156106255780601f106105fa57610100808354040283529160200191610625565b820191906000526020600020905b81548152906001019060200180831161060857829003601f168201915b50505050508152602001600482018054600181600116156101000203166002900480601f0160208091040260200160405190810160405280929190818152602001828054600181600116156101000203166002900480156106c75780601f1061069c576101008083540402835291602001916106c7565b820191906000526020600020905b8154815290600101906020018083116106aa57829003601f168201915b5050505050815250508152602001906001019061041b565b505050509050805160405190808252806020026020018201604052801561071a57816020015b60608152602001906001900390816107055790505b509550805160405190808252806020026020018201604052801561074d5781602001602082028038833980820191505090505b509450805160405190808252806020026020018201604052801561078557816020015b60608152602001906001900390816107705790505b50935080516040519080825280602002602001820160405280156107bd57816020015b60608152602001906001900390816107a85790505b50925080516040519080825280602002602001820160405280156107f557816020015b60608152602001906001900390816107e05790505b50915060008090505b81518110156109005781818151811061081357fe5b60200260200101516000015187828151811061082b57fe5b602002602001018190525081818151811061084257fe5b60200260200101516020015186828151811061085a57fe5b60200260200101818152505081818151811061087257fe5b60200260200101516040015185828151811061088a57fe5b60200260200101819052508181815181106108a157fe5b6020026020010151606001518482815181106108b957fe5b60200260200101819052508181815181106108d057fe5b6020026020010151608001518382815181106108e857fe5b602002602001018190525080806001019150506107fe565b508585858585955095509550955095505091939590929450565b610922612581565b6040518060600160405280858152602001848152602001838152509050806001866040516109509190613061565b9081526020016040518091039020600082015181600001908051906020019061097a929190612501565b506020820151816001019080519060200190610997929190612501565b5060408201518160020190805190602001906109b49291906125a2565b509050505050505050565b606080600060606109ce6124d9565b6005866040516109de9190613061565b9081526020016040518091039020604051806080016040529081600082018054600181600116156101000203166002900480601f016020809104026020016040519081016040528092919081815260200182805460018160011615610100020316600290048015610a905780601f10610a6557610100808354040283529160200191610a90565b820191906000526020600020905b815481529060010190602001808311610a7357829003601f168201915b50505050508152602001600182018054600181600116156101000203166002900480601f016020809104026020016040519081016040528092919081815260200182805460018160011615610100020316600290048015610b325780601f10610b0757610100808354040283529160200191610b32565b820191906000526020600020905b815481529060010190602001808311610b1557829003601f168201915b5050505050815260200160028201548152602001600382018054600181600116156101000203166002900480601f016020809104026020016040519081016040528092919081815260200182805460018160011615610100020316600290048015610bde5780601f10610bb357610100808354040283529160200191610bde565b820191906000526020600020905b815481529060010190602001808311610bc157829003601f168201915b505050505081525050905080600001519450806020015193508060400151925080606001519150848484849450945094509450509193509193565b610c21612602565b6040518060a00160405280878152602001868152602001858152602001848152602001838152509050600287604051610c5a9190613061565b908152602001604051809103902081908060018154018082558091505090600182039060005260206000209060050201600090919290919091506000820151816000019080519060200190610cb0929190612501565b5060208201518160010155604082015181600201556060820151816003019080519060200190610ce1929190612501565b506080820151816004019080519060200190610cfe9291906125a2565b5050505050505050505050565b610d13612631565b6040518060400160405280848152602001838152509050600684604051610d3a9190613061565b908152602001604051809103902081908060018154018082558091505090600182039060005260206000209060020201600090919290919091506000820151816000019080519060200190610d90929190612501565b506020820151816001015550505050505050565b6060600080606080610db461264b565b600387604051610dc49190613061565b90815260200160405180910390206040518060a0016040529081600082018054600181600116156101000203166002900480601f016020809104026020016040519081016040528092919081815260200182805460018160011615610100020316600290048015610e765780601f10610e4b57610100808354040283529160200191610e76565b820191906000526020600020905b815481529060010190602001808311610e5957829003601f168201915b505050505081526020016001820154815260200160028201548152602001600382018054600181600116156101000203166002900480601f016020809104026020016040519081016040528092919081815260200182805460018160011615610100020316600290048015610f2c5780601f10610f0157610100808354040283529160200191610f2c565b820191906000526020600020905b815481529060010190602001808311610f0f57829003601f168201915b5050505050815260200160048201805480602002602001604051908101604052809291908181526020016000905b82821015611016578382906000526020600020018054600181600116156101000203166002900480601f0160208091040260200160405190810160405280929190818152602001828054600181600116156101000203166002900480156110025780601f10610fd757610100808354040283529160200191611002565b820191906000526020600020905b815481529060010190602001808311610fe557829003601f168201915b505050505081526020019060010190610f5a565b5050505081525050905080600001519550806020015194508060400151935080606001519250806080015191508585858585955095509550955095505091939590929450565b60608060606006846040516110719190613061565b9081526020016040518091039020805480602002602001604051908101604052809291908181526020016000905b8282101561117d5783829060005260206000209060020201604051806040016040529081600082018054600181600116156101000203166002900480601f01602080910402602001604051908101604052809291908181526020018280546001816001161561010002031660029004801561115b5780601f106111305761010080835404028352916020019161115b565b820191906000526020600020905b81548152906001019060200180831161113e57829003601f168201915b505050505081526020016001820154815250508152602001906001019061109f565b50505050905080516040519080825280602002602001820160405280156111b857816020015b60608152602001906001900390816111a35790505b50925080516040519080825280602002602001820160405280156111eb5781602001602082028038833980820191505090505b50915060008090505b81518110156112695781818151811061120957fe5b60200260200101516000015184828151811061122157fe5b602002602001018190525081818151811061123857fe5b60200260200101516020015183828151811061125057fe5b60200260200101818152505080806001019150506111f4565b5082829250925050915091565b606080606080606080606080606061128c61267a565b60008b60405161129c9190613061565b908152602001604051809103902060405180610120016040529081600082018054600181600116156101000203166002900480601f01602080910402602001604051908101604052809291908181526020018280546001816001161561010002031660029004801561134f5780601f106113245761010080835404028352916020019161134f565b820191906000526020600020905b81548152906001019060200180831161133257829003601f168201915b50505050508152602001600182018054600181600116156101000203166002900480601f0160208091040260200160405190810160405280929190818152602001828054600181600116156101000203166002900480156113f15780601f106113c6576101008083540402835291602001916113f1565b820191906000526020600020905b8154815290600101906020018083116113d457829003601f168201915b50505050508152602001600282018054600181600116156101000203166002900480601f0160208091040260200160405190810160405280929190818152602001828054600181600116156101000203166002900480156114935780601f1061146857610100808354040283529160200191611493565b820191906000526020600020905b81548152906001019060200180831161147657829003601f168201915b50505050508152602001600382018054600181600116156101000203166002900480601f0160208091040260200160405190810160405280929190818152602001828054600181600116156101000203166002900480156115355780601f1061150a57610100808354040283529160200191611535565b820191906000526020600020905b81548152906001019060200180831161151857829003601f168201915b50505050508152602001600482018054600181600116156101000203166002900480601f0160208091040260200160405190810160405280929190818152602001828054600181600116156101000203166002900480156115d75780601f106115ac576101008083540402835291602001916115d7565b820191906000526020600020905b8154815290600101906020018083116115ba57829003601f168201915b50505050508152602001600582018054600181600116156101000203166002900480601f0160208091040260200160405190810160405280929190818152602001828054600181600116156101000203166002900480156116795780601f1061164e57610100808354040283529160200191611679565b820191906000526020600020905b81548152906001019060200180831161165c57829003601f168201915b50505050508152602001600682018054600181600116156101000203166002900480601f01602080910402602001604051908101604052809291908181526020018280546001816001161561010002031660029004801561171b5780601f106116f05761010080835404028352916020019161171b565b820191906000526020600020905b8154815290600101906020018083116116fe57829003601f168201915b5050505050815260200160078201805480602002602001604051908101604052809291908181526020016000905b82821015611805578382906000526020600020018054600181600116156101000203166002900480601f0160208091040260200160405190810160405280929190818152602001828054600181600116156101000203166002900480156117f15780601f106117c6576101008083540402835291602001916117f1565b820191906000526020600020905b8154815290600101906020018083116117d457829003601f168201915b505050505081526020019060010190611749565b505050508152602001600882018054600181600116156101000203166002900480601f0160208091040260200160405190810160405280929190818152602001828054600181600116156101000203166002900480156118a65780601f1061187b576101008083540402835291602001916118a6565b820191906000526020600020905b81548152906001019060200180831161188957829003601f168201915b505050505081525050905080600001519950806020015198508060400151975080606001519650806080015195508060a0015194508060c0015193508060e0015192508061010001519150898989898989898989995099509950995099509950995099509950509193959799909294969850565b61192261264b565b6040518060a001604052808781526020018681526020018581526020018481526020018381525090508060038860405161195c9190613061565b90815260200160405180910390206000820151816000019080519060200190611986929190612501565b50602082015181600101556040820151816002015560608201518160030190805190602001906119b7929190612501565b5060808201518160040190805190602001906119d49291906125a2565b5090505050505050505050565b60608060608060608060606002886040516119fc9190613061565b9081526020016040518091039020805480602002602001604051908101604052809291908181526020016000905b82821015611c9d57838290600052602060002090600502016040518060a0016040529081600082018054600181600116156101000203166002900480601f016020809104026020016040519081016040528092919081815260200182805460018160011615610100020316600290048015611ae65780601f10611abb57610100808354040283529160200191611ae6565b820191906000526020600020905b815481529060010190602001808311611ac957829003601f168201915b505050505081526020016001820154815260200160028201548152602001600382018054600181600116156101000203166002900480601f016020809104026020016040519081016040528092919081815260200182805460018160011615610100020316600290048015611b9c5780601f10611b7157610100808354040283529160200191611b9c565b820191906000526020600020905b815481529060010190602001808311611b7f57829003601f168201915b5050505050815260200160048201805480602002602001604051908101604052809291908181526020016000905b82821015611c86578382906000526020600020018054600181600116156101000203166002900480601f016020809104026020016040519081016040528092919081815260200182805460018160011615610100020316600290048015611c725780601f10611c4757610100808354040283529160200191611c72565b820191906000526020600020905b815481529060010190602001808311611c5557829003601f168201915b505050505081526020019060010190611bca565b505050508152505081526020019060010190611a2a565b50505050905060008090508151604051908082528060200260200182016040528015611cdd57816020015b6060815260200190600190039081611cc85790505b5097508151604051908082528060200260200182016040528015611d105781602001602082028038833980820191505090505b5096508151604051908082528060200260200182016040528015611d435781602001602082028038833980820191505090505b5095508151604051908082528060200260200182016040528015611d7b57816020015b6060815260200190600190039081611d665790505b5094508151604051908082528060200260200182016040528015611dae5781602001602082028038833980820191505090505b50935060008090505b8251811015611ed957828181518110611dcc57fe5b602002602001015160000151898281518110611de457fe5b6020026020010181905250828181518110611dfb57fe5b602002602001015160200151888281518110611e1357fe5b602002602001018181525050828181518110611e2b57fe5b602002602001015160400151878281518110611e4357fe5b602002602001018181525050828181518110611e5b57fe5b602002602001015160600151868281518110611e7357fe5b6020026020010181905250828181518110611e8a57fe5b60200260200101516080015151858281518110611ea357fe5b602002602001018181525050828181518110611ebb57fe5b60200260200101516080015151820191508080600101915050611db7565b5080604051908082528060200260200182016040528015611f0e57816020015b6060815260200190600190039081611ef95790505b5092506000905060008090505b8251811015611fad5760008090505b838281518110611f3657fe5b60200260200101516080015151811015611f9f57838281518110611f5657fe5b6020026020010151608001518181518110611f6d57fe5b6020026020010151858480600101955081518110611f8757fe5b60200260200101819052508080600101915050611f2a565b508080600101915050611f1b565b50878787878787975097509750975097509750505091939550919395565b611fd36126c6565b6040518060a0016040528087815260200186815260200185815260200184815260200183815250905060048760405161200c9190613061565b908152602001604051809103902081908060018154018082558091505090600182039060005260206000209060050201600090919290919091506000820151816000019080519060200190612062929190612501565b50602082015181600101556040820151816002019080519060200190612089929190612501565b5060608201518160030190805190602001906120a6929190612501565b5060808201518160040190805190602001906120c3929190612501565b5050505050505050505050565b60608060606120dd612581565b6001856040516120ed9190613061565b9081526020016040518091039020604051806060016040529081600082018054600181600116156101000203166002900480601f01602080910402602001604051908101604052809291908181526020018280546001816001161561010002031660029004801561219f5780601f106121745761010080835404028352916020019161219f565b820191906000526020600020905b81548152906001019060200180831161218257829003601f168201915b50505050508152602001600182018054600181600116156101000203166002900480601f0160208091040260200160405190810160405280929190818152602001828054600181600116156101000203166002900480156122415780601f1061221657610100808354040283529160200191612241565b820191906000526020600020905b81548152906001019060200180831161222457829003601f168201915b5050505050815260200160028201805480602002602001604051908101604052809291908181526020016000905b8282101561232b578382906000526020600020018054600181600116156101000203166002900480601f0160208091040260200160405190810160405280929190818152602001828054600181600116156101000203166002900480156123175780601f106122ec57610100808354040283529160200191612317565b820191906000526020600020905b8154815290600101906020018083116122fa57829003601f168201915b50505050508152602001906001019061226f565b50505050815250509050806000015193508060200151925080604001519150838383935093509350509193909250565b61236361267a565b6040518061012001604052808b81526020018a81526020018981526020018881526020018781526020018681526020018581526020018481526020018381525090508060008b6040516123b69190613061565b908152602001604051809103902060008201518160000190805190602001906123e0929190612501565b5060208201518160010190805190602001906123fd929190612501565b50604082015181600201908051906020019061241a929190612501565b506060820151816003019080519060200190612437929190612501565b506080820151816004019080519060200190612454929190612501565b5060a0820151816005019080519060200190612471929190612501565b5060c082015181600601908051906020019061248e929190612501565b5060e08201518160070190805190602001906124ab9291906125a2565b506101008201518160080190805190602001906124c9929190612501565b5090505050505050505050505050565b6040518060800160405280606081526020016060815260200160008152602001606081525090565b828054600181600116156101000203166002900490600052602060002090601f016020900481019282601f1061254257805160ff1916838001178555612570565b82800160010185558215612570579182015b8281111561256f578251825591602001919060010190612554565b5b50905061257d91906126f5565b5090565b60405180606001604052806060815260200160608152602001606081525090565b8280548282559060005260206000209081019282156125f1579160200282015b828111156125f05782518290805190602001906125e0929190612501565b50916020019190600101906125c2565b5b5090506125fe919061271a565b5090565b6040518060a0016040528060608152602001600081526020016000815260200160608152602001606081525090565b604051806040016040528060608152602001600081525090565b6040518060a0016040528060608152602001600081526020016000815260200160608152602001606081525090565b6040518061012001604052806060815260200160608152602001606081526020016060815260200160608152602001606081526020016060815260200160608152602001606081525090565b6040518060a0016040528060608152602001600081526020016060815260200160608152602001606081525090565b61271791905b808211156127135760008160009055506001016126fb565b5090565b90565b61274391905b8082111561273f57600081816127369190612746565b50600101612720565b5090565b90565b50805460018160011615610100020316600290046000825580601f1061276c575061278b565b601f01602090049060005260206000209081019061278a91906126f5565b5b50565b600082601f83011261279f57600080fd5b81356127b26127ad826133b7565b61338a565b9150818183526020840193506020810190508360005b838110156127f857813586016127de8882612802565b8452602084019350602083019250506001810190506127c8565b5050505092915050565b600082601f83011261281357600080fd5b8135612826612821826133df565b61338a565b9150808252602083016020830185838301111561284257600080fd5b61284d8382846134f6565b50505092915050565b600082601f83011261286757600080fd5b813561287a6128758261340b565b61338a565b9150808252602083016020830185838301111561289657600080fd5b6128a18382846134f6565b50505092915050565b6000813590506128b981613549565b92915050565b6000602082840312156128d157600080fd5b600082013567ffffffffffffffff8111156128eb57600080fd5b6128f784828501612856565b91505092915050565b6000806000806080858703121561291657600080fd5b600085013567ffffffffffffffff81111561293057600080fd5b61293c87828801612856565b945050602085013567ffffffffffffffff81111561295957600080fd5b61296587828801612856565b935050604085013567ffffffffffffffff81111561298257600080fd5b61298e87828801612856565b925050606085013567ffffffffffffffff8111156129ab57600080fd5b6129b78782880161278e565b91505092959194509250565b60008060008060008060008060006101208a8c0312156129e257600080fd5b60008a013567ffffffffffffffff8111156129fc57600080fd5b612a088c828d01612856565b99505060208a013567ffffffffffffffff811115612a2557600080fd5b612a318c828d01612856565b98505060408a013567ffffffffffffffff811115612a4e57600080fd5b612a5a8c828d01612856565b97505060608a013567ffffffffffffffff811115612a7757600080fd5b612a838c828d01612856565b96505060808a013567ffffffffffffffff811115612aa057600080fd5b612aac8c828d01612856565b95505060a08a013567ffffffffffffffff811115612ac957600080fd5b612ad58c828d01612856565b94505060c08a013567ffffffffffffffff811115612af257600080fd5b612afe8c828d01612856565b93505060e08a013567ffffffffffffffff811115612b1b57600080fd5b612b278c828d0161278e565b9250506101008a013567ffffffffffffffff811115612b4557600080fd5b612b518c828d01612856565b9150509295985092959850929598565b600080600080600060a08688031215612b7957600080fd5b600086013567ffffffffffffffff811115612b9357600080fd5b612b9f88828901612856565b955050602086013567ffffffffffffffff811115612bbc57600080fd5b612bc888828901612856565b945050604086013567ffffffffffffffff811115612be557600080fd5b612bf188828901612856565b9350506060612c02888289016128aa565b925050608086013567ffffffffffffffff811115612c1f57600080fd5b612c2b88828901612856565b9150509295509295909350565b600080600060608486031215612c4d57600080fd5b600084013567ffffffffffffffff811115612c6757600080fd5b612c7386828701612856565b935050602084013567ffffffffffffffff811115612c9057600080fd5b612c9c86828701612856565b9250506040612cad868287016128aa565b9150509250925092565b60008060008060008060c08789031215612cd057600080fd5b600087013567ffffffffffffffff811115612cea57600080fd5b612cf689828a01612856565b965050602087013567ffffffffffffffff811115612d1357600080fd5b612d1f89828a01612856565b9550506040612d3089828a016128aa565b945050606087013567ffffffffffffffff811115612d4d57600080fd5b612d5989828a01612856565b935050608087013567ffffffffffffffff811115612d7657600080fd5b612d8289828a01612856565b92505060a087013567ffffffffffffffff811115612d9f57600080fd5b612dab89828a01612856565b9150509295509295509295565b60008060008060008060c08789031215612dd157600080fd5b600087013567ffffffffffffffff811115612deb57600080fd5b612df789828a01612856565b965050602087013567ffffffffffffffff811115612e1457600080fd5b612e2089828a01612856565b9550506040612e3189828a016128aa565b9450506060612e4289828a016128aa565b935050608087013567ffffffffffffffff811115612e5f57600080fd5b612e6b89828a01612856565b92505060a087013567ffffffffffffffff811115612e8857600080fd5b612e9489828a0161278e565b9150509295509295509295565b6000612ead838361300a565b905092915050565b6000612ec18383613043565b60208301905092915050565b6000612ed882613457565b612ee2818561349d565b935083602082028501612ef485613437565b8060005b85811015612f305784840389528151612f118582612ea1565b9450612f1c83613483565b925060208a01995050600181019050612ef8565b50829750879550505050505092915050565b6000612f4d82613462565b612f5781856134ae565b9350612f6283613447565b8060005b83811015612f93578151612f7a8882612eb5565b9750612f8583613490565b925050600181019050612f66565b5085935050505092915050565b6000612fab82613478565b612fb581856134d0565b9350612fc5818560208601613505565b612fce81613538565b840191505092915050565b6000612fe482613478565b612fee81856134e1565b9350612ffe818560208601613505565b80840191505092915050565b60006130158261346d565b61301f81856134bf565b935061302f818560208601613505565b61303881613538565b840191505092915050565b61304c816134ec565b82525050565b61305b816134ec565b82525050565b600061306d8284612fd9565b915081905092915050565b600060408201905081810360008301526130928185612ecd565b905081810360208301526130a68184612f42565b90509392505050565b600060a08201905081810360008301526130c98188612ecd565b905081810360208301526130dd8187612f42565b905081810360408301526130f18186612ecd565b905081810360608301526131058185612ecd565b905081810360808301526131198184612ecd565b90509695505050505050565b600060c082019050818103600083015261313f8189612ecd565b905081810360208301526131538188612f42565b905081810360408301526131678187612f42565b9050818103606083015261317b8186612ecd565b9050818103608083015261318f8185612f42565b905081810360a08301526131a38184612ecd565b9050979650505050505050565b600060608201905081810360008301526131ca8186612fa0565b905081810360208301526131de8185612fa0565b905081810360408301526131f28184612ecd565b9050949350505050565b6000610120820190508181036000830152613217818c612fa0565b9050818103602083015261322b818b612fa0565b9050818103604083015261323f818a612fa0565b905081810360608301526132538189612fa0565b905081810360808301526132678188612fa0565b905081810360a083015261327b8187612fa0565b905081810360c083015261328f8186612fa0565b905081810360e08301526132a38185612ecd565b90508181036101008301526132b88184612fa0565b90509a9950505050505050505050565b600060808201905081810360008301526132e28187612fa0565b905081810360208301526132f68186612fa0565b90506133056040830185613052565b81810360608301526133178184612fa0565b905095945050505050565b600060a082019050818103600083015261333c8188612fa0565b905061334b6020830187613052565b6133586040830186613052565b818103606083015261336a8185612fa0565b9050818103608083015261337e8184612ecd565b90509695505050505050565b6000604051905081810181811067ffffffffffffffff821117156133ad57600080fd5b8060405250919050565b600067ffffffffffffffff8211156133ce57600080fd5b602082029050602081019050919050565b600067ffffffffffffffff8211156133f657600080fd5b601f19601f8301169050602081019050919050565b600067ffffffffffffffff82111561342257600080fd5b601f19601f8301169050602081019050919050565b6000819050602082019050919050565b6000819050602082019050919050565b600081519050919050565b600081519050919050565b600081519050919050565b600081519050919050565b6000602082019050919050565b6000602082019050919050565b600082825260208201905092915050565b600082825260208201905092915050565b600082825260208201905092915050565b600082825260208201905092915050565b600081905092915050565b6000819050919050565b82818337600083830152505050565b60005b83811015613523578082015181840152602081019050613508565b83811115613532576000848401525b50505050565b6000601f19601f8301169050919050565b613552816134ec565b811461355d57600080fd5b5056fea365627a7a7231582072922fe3a2aef03ce7b1ebcbe302eea1822c1ebb006a05500ddfe6c9555b895c6c6578706572696d656e74616cf564736f6c63430005100040",
  "source": "pragma solidity >=0.4.21 <0.7.0;\r\npragma experimental ABIEncoderV2;\r\ncontract Tea {\r\n    mapping(string =>Product) productIdInstores;\r\n    mapping(string =>Plant) plants;\r\n    mapping(string =>Process[]) processs;\r\n    mapping(string =>Storage) storages;\r\n    mapping(string =>Check[]) checks;\r\n    mapping(string =>Sale) sales;\r\n    struct Product{\r\n        string id;               //id\r\n        string name;             //\r\n        string typeId;           //id\r\n        string batch;            //\r\n        string grade;            //\r\n        string period;           //\r\n        string store;            //\r\n        string[] img;            //\r\n        string qr;               //\r\n    }\r\n\r\n     struct Plant{\r\n        string place;            //\r\n        string planter;         //\r\n        string[] img;            //\r\n    }\r\n    mapping(string =>Pesticide[]) pesticides;\r\n    struct Pesticide{\r\n        string name;             //\r\n        uint date;               //\r\n    }\r\n    struct Process{\r\n        string method;           //\r\n        uint startDate;          //\r\n        uint endDate;            //\r\n        string processer;        //\r\n        string[] img;            //\r\n    }\r\n     struct Storage{\r\n        string place;            //\r\n        uint startDate;          //\r\n        uint endDate;            //\r\n        string storageer;        //\r\n        string[] img;            //\r\n    }\r\n     struct Check{\r\n        string typeId;           //\r\n        uint date;               //\r\n        string result;           //\r\n        string info;             //\r\n        string checker;          //\r\n    }\r\n     struct Sale{\r\n        string place;            //\r\n        string method;           //\r\n        uint date;               //\r\n        string saleer;           //\r\n    }\r\n    //\r\n    function  getProduct(string memory _id ) public view  returns (string memory id,string memory name,string memory typeId,\r\n    string memory batch,string memory grade, string memory period, string memory store, string[] memory img,string memory qr){\r\n        Product memory product = productIdInstores[_id];\r\n        id = product.id;\r\n        name = product.name;\r\n        typeId = product.typeId;\r\n        batch = product.batch;\r\n        grade = product.grade;\r\n        period = product.period;\r\n        store = product.store;\r\n        img = product.img;\r\n        qr = product.qr;\r\n        return(id,name,typeId,batch,grade,period,store,img,qr);\r\n    }\r\n    //\r\n    function  setProduct(string memory id,string memory name,string memory typeId,\r\n    string memory batch,string memory grade, string memory period, string memory store, string[] memory img,string memory qr) public{\r\n       Product memory product = Product({\r\n           id:id,\r\n           name:name,\r\n           typeId:typeId,\r\n           batch:batch,\r\n           grade:grade,\r\n           period:period,\r\n           store:store,\r\n           img:img,\r\n           qr:qr\r\n       });\r\n       productIdInstores[id] = product;\r\n    }\r\n    //\r\n    function  getPlant(string memory _id ) public view  returns (string memory place,string memory planter, string[] memory img){\r\n        Plant memory plant = plants[_id];\r\n        place = plant.place;\r\n        planter = plant.planter;\r\n        img = plant.img;\r\n        return(place,planter,img);\r\n    }\r\n    //\r\n    function  setPlant(string memory id,string memory place,string memory planter, string[] memory img) public{\r\n       Plant memory plant = Plant({\r\n           place:place,\r\n           planter:planter,\r\n           img:img\r\n       });\r\n       plants[id] = plant;\r\n    }\r\n    //\r\n    function  getPesticide(string memory _id ) public view  returns (string[] memory name,uint[] memory date){\r\n        Pesticide[] memory pesticide = pesticides[_id];\r\n        name = new string[](pesticide.length);\r\n        date = new uint[](pesticide.length);\r\n        for(uint i = 0;i<pesticide.length;i++){\r\n            name[i] = pesticide[i].name;\r\n            date[i] = pesticide[i].date;\r\n        }\r\n        return(name,date);\r\n    }\r\n    //\r\n    function  setPesticide(string memory id,string memory name,uint date) public{\r\n       Pesticide memory pesticide = Pesticide({\r\n           name:name,\r\n           date:date\r\n       });\r\n       pesticides[id].push(pesticide);\r\n    }\r\n     //\r\n    function  getProcess(string memory _id ) public view  returns (string[] memory method,uint[] memory startDate, uint[] memory endDate,\r\n    string[] memory processer,uint[] memory num,string[] memory img){\r\n        Process[] memory process = processs[_id];\r\n        uint z = 0;\r\n        method = new string[](process.length);\r\n        startDate = new uint[](process.length);\r\n        endDate = new uint[](process.length);\r\n        processer = new string[](process.length);\r\n        num = new uint[](process.length);\r\n         for(uint i = 0;i<process.length;i++){\r\n            method[i] = process[i].method;\r\n            startDate[i] = process[i].startDate;\r\n            endDate[i] = process[i].endDate;\r\n            processer[i] = process[i].processer;\r\n            num[i] = process[i].img.length;\r\n            z += process[i].img.length;\r\n        }\r\n        img = new string[](z);\r\n        z = 0;\r\n        for(uint i = 0;i<process.length;i++){\r\n        for(uint j = 0; j<process[i].img.length;j++){\r\n                img[z++] = process[i].img[j];\r\n            }\r\n         }\r\n        return(method,startDate,endDate,processer,num,img);\r\n    }\r\n    //\r\n    function  setProcess(string memory id,string memory method,uint startDate, uint endDate,\r\n    string memory processer,string[] memory img) public{\r\n       Process memory process = Process({\r\n           method:method,\r\n           startDate:startDate,\r\n           endDate:endDate,\r\n           processer:processer,\r\n           img:img\r\n       });\r\n       processs[id].push(process);\r\n    }\r\n     //\r\n    function  getStorage(string memory _id ) public view  returns (string memory place,uint startDate,\r\n    uint endDate, string memory storageer,string[] memory img){\r\n        Storage memory stor = storages[_id];\r\n        place = stor.place;\r\n        startDate = stor.startDate;\r\n        endDate = stor.endDate;\r\n        storageer = stor.storageer;\r\n        img = stor.img;\r\n        return(place,startDate,endDate,storageer,img);\r\n    }\r\n    //\r\n    function  setStorage(string memory id,string memory place,uint startDate,uint endDate, string memory storageer,string[] memory img) public{\r\n       Storage memory stor = Storage({\r\n           place:place,\r\n           startDate:startDate,\r\n           endDate:endDate,\r\n           storageer:storageer,\r\n           img:img\r\n       });\r\n       storages[id] = stor;\r\n    }\r\n     //\r\n    function  getCheck(string memory _id ) public view  returns (string[] memory typeId,uint[] memory date,\r\n    string[] memory result,string[] memory info,string[] memory checker){\r\n        Check[] memory check = checks[_id];\r\n        typeId = new string[](check.length);\r\n        date = new uint[](check.length);\r\n        result = new string[](check.length);\r\n        info = new string[](check.length);\r\n        checker = new string[](check.length);\r\n        for(uint i = 0;i<check.length;i++){\r\n            typeId[i] = check[i].typeId;\r\n            date[i] = check[i].date;\r\n            result[i] = check[i].result;\r\n            info[i] = check[i].info;\r\n            checker[i] = check[i].checker;\r\n        }\r\n        return(typeId,date,result,info,checker);\r\n    }\r\n    //\r\n    function  setCheck(string memory id,string memory typeId,uint date,\r\n    string memory result,string memory info,string memory checker) public{\r\n       Check memory check = Check({\r\n           typeId:typeId,\r\n           date:date,\r\n           result:result,\r\n           info:info,\r\n           checker:checker\r\n       });\r\n       checks[id].push(check);\r\n    }\r\n     //\r\n    function  getSale(string memory _id ) public view  returns (string memory place,string memory method, uint date,string memory saleer){\r\n        Sale memory sale = sales[_id];\r\n        place = sale.place;\r\n        method = sale.method;\r\n        date = sale.date;\r\n        saleer = sale.saleer;\r\n        return(place,method,date,saleer);\r\n    }\r\n    //\r\n    function  setSale(string memory id,string memory place,string memory method, uint date,string memory saleer) public{\r\n       Sale memory sale = Sale({\r\n           place:place,\r\n           method:method,\r\n           date:date,\r\n           saleer:saleer\r\n       });\r\n       sales[id] = sale;\r\n    }\r\n}",
  "sourcePath": "E:\\vscode\\tea\\contracts\\Tea.sol",
  "compiler": {
    "name": "solc",
    "version": "0.5.16+commit.9c3226ce.Emscripten.clang"
  },
  "schemaVersion": "3.0.23",
  "updatedAt": "2020-04-07T14:32:13.636Z",
  "networkType": "ethereum",
  "devdoc": {
    "methods": {}
  },
  "userdoc": {
    "methods": {}
  }
}