{
  "contractName": "Test",
  "abi": [
    {
      "inputs": [],
      "payable": false,
      "stateMutability": "nonpayable",
      "type": "constructor"
    },
    {
      "constant": true,
      "inputs": [],
      "name": "productIndex",
      "outputs": [
        {
          "internalType": "uint256",
          "name": "",
          "type": "uint256"
        }
      ],
      "payable": false,
      "stateMutability": "view",
      "type": "function"
    },
    {
      "constant": false,
      "inputs": [
        {
          "internalType": "string",
          "name": "_name",
          "type": "string"
        },
        {
          "internalType": "string",
          "name": "_category",
          "type": "string"
        },
        {
          "internalType": "string",
          "name": "_imageLink",
          "type": "string"
        },
        {
          "internalType": "string",
          "name": "_descLink",
          "type": "string"
        },
        {
          "internalType": "uint256",
          "name": "_auctionStartTime",
          "type": "uint256"
        },
        {
          "internalType": "uint256",
          "name": "_auctionEndTime",
          "type": "uint256"
        },
        {
          "internalType": "uint256",
          "name": "_startPrice",
          "type": "uint256"
        },
        {
          "internalType": "uint256",
          "name": "_productCondition",
          "type": "uint256"
        }
      ],
      "name": "addProductToStore",
      "outputs": [],
      "payable": false,
      "stateMutability": "nonpayable",
      "type": "function"
    },
    {
      "constant": true,
      "inputs": [
        {
          "internalType": "uint256",
          "name": "_productId",
          "type": "uint256"
        }
      ],
      "name": "getProduct",
      "outputs": [
        {
          "internalType": "uint256",
          "name": "",
          "type": "uint256"
        },
        {
          "internalType": "string",
          "name": "",
          "type": "string"
        },
        {
          "internalType": "string",
          "name": "",
          "type": "string"
        },
        {
          "internalType": "string",
          "name": "",
          "type": "string"
        },
        {
          "internalType": "string",
          "name": "",
          "type": "string"
        },
        {
          "internalType": "uint256",
          "name": "",
          "type": "uint256"
        },
        {
          "internalType": "uint256",
          "name": "",
          "type": "uint256"
        },
        {
          "internalType": "uint256",
          "name": "",
          "type": "uint256"
        },
        {
          "internalType": "enum Test.ProductStatus",
          "name": "",
          "type": "uint8"
        },
        {
          "internalType": "enum Test.ProductCondition",
          "name": "",
          "type": "uint8"
        }
      ],
      "payable": false,
      "stateMutability": "view",
      "type": "function"
    }
  ],
  "bytecode": "0x608060405234801561001057600080fd5b5060008081905550610e78806100276000396000f3fe608060405234801561001057600080fd5b50600436106100415760003560e01c8063a508b95514610046578063b9db15b4146102ef578063c897d5a614610520575b600080fd5b6102ed600480360361010081101561005d57600080fd5b810190808035906020019064010000000081111561007a57600080fd5b82018360208201111561008c57600080fd5b803590602001918460018302840111640100000000831117156100ae57600080fd5b91908080601f016020809104026020016040519081016040528093929190818152602001838380828437600081840152601f19601f8201169050808301925050505050505091929192908035906020019064010000000081111561011157600080fd5b82018360208201111561012357600080fd5b8035906020019184600183028401116401000000008311171561014557600080fd5b91908080601f016020809104026020016040519081016040528093929190818152602001838380828437600081840152601f19601f820116905080830192505050505050509192919290803590602001906401000000008111156101a857600080fd5b8201836020820111156101ba57600080fd5b803590602001918460018302840111640100000000831117156101dc57600080fd5b91908080601f016020809104026020016040519081016040528093929190818152602001838380828437600081840152601f19601f8201169050808301925050505050505091929192908035906020019064010000000081111561023f57600080fd5b82018360208201111561025157600080fd5b8035906020019184600183028401116401000000008311171561027357600080fd5b91908080601f016020809104026020016040519081016040528093929190818152602001838380828437600081840152601f19601f8201169050808301925050505050505091929192908035906020019092919080359060200190929190803590602001909291908035906020019092919050505061053e565b005b61031b6004803603602081101561030557600080fd5b8101908080359060200190929190505050610874565b604051808b8152602001806020018060200180602001806020018a815260200189815260200188815260200187600281111561035357fe5b60ff16815260200186600181111561036757fe5b60ff16815260200185810385528e818151815260200191508051906020019080838360005b838110156103a757808201518184015260208101905061038c565b50505050905090810190601f1680156103d45780820380516001836020036101000a031916815260200191505b5085810384528d818151815260200191508051906020019080838360005b8381101561040d5780820151818401526020810190506103f2565b50505050905090810190601f16801561043a5780820380516001836020036101000a031916815260200191505b5085810383528c818151815260200191508051906020019080838360005b83811015610473578082015181840152602081019050610458565b50505050905090810190601f1680156104a05780820380516001836020036101000a031916815260200191505b5085810382528b818151815260200191508051906020019080838360005b838110156104d95780820151818401526020810190506104be565b50505050905090810190601f1680156105065780820380516001836020036101000a031916815260200191505b509e50505050505050505050505050505060405180910390f35b610528610cfd565b6040518082815260200191505060405180910390f35b8284106105b3576040517f08c379a000000000000000000000000000000000000000000000000000000000815260040180806020018281038252600c8152602001807fe99d9ee6b395e8be93e585a5000000000000000000000000000000000000000081525060200191505060405180910390fd5b600160008082825401925050819055506105cb610d03565b604051806101c0016040528060005481526020018a81526020018981526020018881526020018781526020018681526020018581526020018481526020013373ffffffffffffffffffffffffffffffffffffffff1681526020016000815260200160008152602001600081526020016000600281111561064757fe5b815260200183600181111561065857fe5b600181111561066357fe5b815250905080600160003373ffffffffffffffffffffffffffffffffffffffff1673ffffffffffffffffffffffffffffffffffffffff1681526020019081526020016000206000805481526020019081526020016000206000820151816000015560208201518160010190805190602001906106e0929190610d9e565b5060408201518160020190805190602001906106fd929190610d9e565b50606082015181600301908051906020019061071a929190610d9e565b506080820151816004019080519060200190610737929190610d9e565b5060a0820151816005015560c0820151816006015560e082015181600701556101008201518160080160006101000a81548173ffffffffffffffffffffffffffffffffffffffff021916908373ffffffffffffffffffffffffffffffffffffffff160217905550610120820151816009015561014082015181600a015561016082015181600b015561018082015181600c0160006101000a81548160ff021916908360028111156107e457fe5b02179055506101a082015181600c0160016101000a81548160ff0219169083600181111561080e57fe5b021790555090505033600260008054815260200190815260200160002060006101000a81548173ffffffffffffffffffffffffffffffffffffffff021916908373ffffffffffffffffffffffffffffffffffffffff160217905550505050505050505050565b6000606080606080600080600080600061088c610d03565b60016000600260008f815260200190815260200160002060009054906101000a900473ffffffffffffffffffffffffffffffffffffffff1673ffffffffffffffffffffffffffffffffffffffff1673ffffffffffffffffffffffffffffffffffffffff16815260200190815260200160002060008d8152602001908152602001600020604051806101c001604052908160008201548152602001600182018054600181600116156101000203166002900480601f0160208091040260200160405190810160405280929190818152602001828054600181600116156101000203166002900480156109be5780601f10610993576101008083540402835291602001916109be565b820191906000526020600020905b8154815290600101906020018083116109a157829003601f168201915b50505050508152602001600282018054600181600116156101000203166002900480601f016020809104026020016040519081016040528092919081815260200182805460018160011615610100020316600290048015610a605780601f10610a3557610100808354040283529160200191610a60565b820191906000526020600020905b815481529060010190602001808311610a4357829003601f168201915b50505050508152602001600382018054600181600116156101000203166002900480601f016020809104026020016040519081016040528092919081815260200182805460018160011615610100020316600290048015610b025780601f10610ad757610100808354040283529160200191610b02565b820191906000526020600020905b815481529060010190602001808311610ae557829003601f168201915b50505050508152602001600482018054600181600116156101000203166002900480601f016020809104026020016040519081016040528092919081815260200182805460018160011615610100020316600290048015610ba45780601f10610b7957610100808354040283529160200191610ba4565b820191906000526020600020905b815481529060010190602001808311610b8757829003601f168201915b505050505081526020016005820154815260200160068201548152602001600782015481526020016008820160009054906101000a900473ffffffffffffffffffffffffffffffffffffffff1673ffffffffffffffffffffffffffffffffffffffff1673ffffffffffffffffffffffffffffffffffffffff16815260200160098201548152602001600a8201548152602001600b8201548152602001600c820160009054906101000a900460ff166002811115610c5d57fe5b6002811115610c6857fe5b8152602001600c820160019054906101000a900460ff166001811115610c8a57fe5b6001811115610c9557fe5b815250509050806000015181602001518260400151836060015184608001518560a001518660c001518760e00151886101800151896101a001518898508797508696508595509a509a509a509a509a509a509a509a509a509a50509193959799509193959799565b60005481565b604051806101c001604052806000815260200160608152602001606081526020016060815260200160608152602001600081526020016000815260200160008152602001600073ffffffffffffffffffffffffffffffffffffffff16815260200160008152602001600081526020016000815260200160006002811115610d8657fe5b815260200160006001811115610d9857fe5b81525090565b828054600181600116156101000203166002900490600052602060002090601f016020900481019282601f10610ddf57805160ff1916838001178555610e0d565b82800160010185558215610e0d579182015b82811115610e0c578251825591602001919060010190610df1565b5b509050610e1a9190610e1e565b5090565b610e4091905b80821115610e3c576000816000905550600101610e24565b5090565b9056fea265627a7a7231582036ff936c9d737daff2a60f6c915bb5fa0faa1f2e0a5dcbc56d5f3069faf59e0664736f6c63430005100032",
  "source": "pragma solidity >=0.4.21 <0.7.0;\r\ncontract Test {\r\n    enum ProductStatus {\r\n        Open,\r\n        Sold,\r\n        Unsold\r\n    }\r\n    enum ProductCondition{\r\n        New,\r\n        Used\r\n    }\r\n    uint public productIndex;\r\n    mapping(address => mapping (uint=>Product)) stores;\r\n    mapping(uint =>address) productIdInstore;\r\n    struct Product{\r\n        uint id;\r\n        string name;\r\n        string category;\r\n        string imageLink;\r\n        string descLink;\r\n        uint auctionStartTime;\r\n        uint auctionEndTime;\r\n        uint startPrice;\r\n        address highestBidder;\r\n        uint highestBid;\r\n        uint secondHighestBid;\r\n        uint totalBids;\r\n        ProductStatus status;\r\n        ProductCondition condition;\r\n    }\r\n    constructor () public{\r\n        productIndex = 0;\r\n    }\r\n\r\n    function addProductToStore(string memory _name,string memory _category,string memory _imageLink,\r\n    string memory _descLink,uint _auctionStartTime,uint _auctionEndTime,\r\n    uint _startPrice,uint _productCondition) public{\r\n        require(_auctionStartTime<_auctionEndTime,\"非法输入\");\r\n        productIndex += 1;\r\n        Product memory product = Product(productIndex,_name,_category,\r\n        _imageLink,_descLink,_auctionStartTime,_auctionEndTime,\r\n        _startPrice,msg.sender,0,0,0,ProductStatus.Open,ProductCondition(_productCondition));\r\n        stores[msg.sender][productIndex] = product;\r\n        productIdInstore[productIndex] = msg.sender;\r\n    }\r\n\r\n    function getProduct(uint _productId) public view  returns (uint,string memory,string memory,string memory,\r\n    string memory,uint,uint,uint,ProductStatus,ProductCondition){\r\n        Product memory product = stores[productIdInstore[_productId]][_productId];\r\n        return (product.id,product.name,product.category,product.imageLink,product.descLink,product.auctionStartTime,\r\n        product.auctionEndTime,product.startPrice,product.status,product.condition);\r\n    }\r\n}",
  "sourcePath": "E:\\vscode\\tea\\contracts\\Test.sol",
  "compiler": {
    "name": "solc",
    "version": "0.5.16+commit.9c3226ce.Emscripten.clang"
  },
  "schemaVersion": "3.0.23",
  "updatedAt": "2020-03-25T03:32:36.156Z",
  "networkType": "ethereum",
  "devdoc": {
    "methods": {}
  },
  "userdoc": {
    "methods": {}
  }
}